:020000040800F2
:100000007045002045010008BD0400080D020008ED
:10001000B9040008430300086D0A0008000000004E
:10002000000000000000000000000000250600089D
:1000300047030008000000009701000811070008AE
:100040005F0100085F0100085F0100085F01000810
:100050005F0100085F0100085F0100085F01000800
:100060005F0100085F0100085F0100085F010008F0
:100070005F0100085F0100085F0100085F010008E0
:100080005F0100085F0100085F0100085F010008D0
:100090005F0100085F0100085F0100085F010008C0
:1000A0005F0100085F0100085F0100085F010008B0
:1000B0005F0100085F0100085F0100085F010008A0
:1000C0005F0100085F0100085F0100085F01000890
:1000D0005F010008850800085F0100085F01000853
:1000E0005F0100085F0100085F0100085F01000870
:1000F0005F0100085F0100085F0100085F01000860
:100100005F0100085F0100085F0100085F0100084F
:100110005F0100085F0100085F0100085F0100083F
:100120005F0100085F0100085F0100085F0100082F
:10013000DFF80CD000F0EEF8004800473903000863
:10014000704500200648804706480047FEE7FEE766
:10015000FEE7FEE7FEE7FEE7FEE7FEE7FEE7FEE777
:10016000C507000831010008EFF3108072B6704730
:1001700080F310887047324A1368012B04D04FF087
:10018000010313602F4A10602F4A11602F484FF06F
:10019000805101607047EFF3108272B62848016801
:1001A00091B14FF0000101602648016829B1EFF3D9
:1001B000098121E9F00F0068016023490968096895
:1001C000B1E8F00F81F3098882F310884EF0040E35
:1001D00070471D4908601B494FF00000086018492E
:1001E0004FF0010008601A481A49D0F8002041EA8F
:1001F0000201016015484FF0805101601648006807
:10020000006880F3088861B662B670471EF0040F7C
:100210000CBFEFF30880EFF3098020E9F00F40F8FE
:1002200004ED1EF0040F0CBF80F3088880F30988EA
:1002300000B502F081F85DF804EB4EF0040E704753
:1002400030000020280000202C00002004ED00E0F9
:1002500020ED00E00000FFFF08ED00E040EA0103B0
:100260009B0703D009E008C9121F08C0042AFAD26C
:1002700003E011F8013B00F8013B521EF9D2704730
:10028000D2B201E000F8012B491EFBD270470022D8
:10029000F6E710B513460A4604461946FFF7F0FF85
:1002A000204610BD421E12F8013F002BFBD111F871
:1002B000013B02F8013B002BF9D1704710B5044611
:1002C00004E00B7800F8013B03B1491C521EF8D240
:1002D000204610BD421C10F8011B0029FBD1801ADA
:1002E0007047034611F8012B00F8012B002AF9D1C1
:1002F0001846704730B505460020034600E05B1CF9
:10030000934205D2EC5CC85C201A01D1002CF6D1D6
:1003100030BD0000064C074D06E0E06840F00103E8
:1003200094E8070098471034AC42F6D3FFF704FF77
:10033000BC3E0008DC3E000810B503F091FA002036
:1003400010BD00BFFEE770472DE9F04102460025D1
:100350000026002000230024002791F803C00CF0A1
:100360000F0591F803C00CF0100CBCF1000F03D086
:1003700091F802C04CEA050591F800C0BCF1000FED
:1003800031D0146800202BE04FF0010C0CFA00F380
:10039000B1F800C00CEA03069E4220D183004FF062
:1003A0000F0C0CFA03F7BC4305FA03FC4CEA0404F7
:1003B00091F803C0BCF1280F06D14FF0010C0CFAE4
:1003C00000FCC2F814C00AE091F803C0BCF1480F69
:1003D00005D14FF0010C0CFA00FCC2F810C0401C13
:1003E0000828D1D31460B1F800C0BCF1FF0F34DD90
:1003F000546800202EE000F1080C4FF0010808FAC4
:100400000CF3B1F800C00CEA03069E4221D1830030
:100410004FF00F0C0CFA03F7BC4305FA03FC4CEA4F
:10042000040491F803C0BCF1280F05D100F1080CB9
:1004300008FA0CF8C2F8148091F803C0BCF1480F18
:1004400007D100F1080C4FF0010808FA0CF8C2F8C7
:100450001080401C0828CED35460BDE8F081416173
:10046000704701617047000008B50121242000F0A9
:100470005FF84FF48070ADF8000010208DF8030095
:1004800003208DF8020069460948FFF75DFF4FF42D
:1004900080710748FFF7E5FF0420ADF800006946CA
:1004A0000448FFF751FF04210248FFF7DAFF08BDB7
:1004B000000801400014014000BFFEE77047000043
:1004C00070B5002100230F22C47804B3154C2468B2
:1004D00004F4E064C4F5E064210AC1F10403CA40F5
:1004E000447804FA03F184781440214309010E4C46
:1004F0000678A155047804F01F050124AC40057866
:100500006D11AD0005F1E025C5F8004109E0047862
:1005100004F01F050124AC40044D0678761145F81F
:10052000264070BD0CED00E000E400E080E100E05A
:1005300029B1064A92690243044B9A6104E0034AD6
:1005400092698243014B9A6170470000001002409B
:1005500030B500210022002400232D4D6D6805F0E8
:100560000C0121B1042905D0082923D105E0294D2A
:10057000056022E0274D05601FE0254D6D6805F4FC
:100580007012234D6D6805F48034022505EB92420C
:100590001CB9214D554305600BE01D4D6D6805F4F8
:1005A00000351DB11C4D5543056002E0194D554302
:1005B000056002E0174D056000BF00BF144D6D6877
:1005C00005F0F0010909154D6B5C0568DD404560DB
:1005D0000F4D6D6805F4E061090A104D6B5C4568CC
:1005E000DD4085600A4D6D6805F46051C90A0B4D08
:1005F0006B5C4568DD40C560054D6D6805F44041A4
:10060000890B074D6B5CC568B5FBF3F5056130BD23
:100610000010024000127A0000093D001400002082
:1006200024000020704710B500F002F810BD000053
:100630000CB50020019000903348006840F48030F1
:100640003149086000BF3048006800F40030009075
:100650000198401C0190009818B90198B0F5A06F5E
:10066000F1D12948006800F4003010B10120009059
:1006700001E0002000900098012843D12348006841
:1006800040F01000214908600846006820F003008F
:1006900008600846006840F0020008601A48406898
:1006A000194948600846406848600846406840F478
:1006B000806048600846406820F47C104860084626
:1006C000406840F4E81048600846006840F08070D8
:1006D000086000BF0C48006800F000700028F9D0E6
:1006E0000948406820F00300074948600846406810
:1006F00040F00200486000BF0348406800F00C0072
:100700000828F9D10CBD0000001002400020024072
:1007100010B501F03BFF02F0A7FD01F047FF10BD4F
:1007200010B5002100200022214B5B6803F00C0172
:1007300021B1042906D0082928D107E01D4B1E4C01
:10074000236027E01B4B1C4C236023E0184B5B68A5
:1007500003F47010164B5B6803F48032022303EB42
:10076000904022B9154B4343134C23600DE0104BCE
:100770005B6803F4003323B1104B43430E4C2360FA
:1007800003E00C4B43430C4C236003E0094B0A4C41
:10079000236000BF00BF064B5B68C3F30313084C24
:1007A000E15C054B1B68CB40034C236010BD00008F
:1007B0000010024000127A000000002000093D00F5
:1007C0000400002010B51348006840F001001149F2
:1007D000086008464068104908400E4948600846CD
:1007E00000680E4908400B4908600846006820F47C
:1007F000802008600846406820F4FE0048604FF4FE
:100800001F008860FFF70FFF4FF000600449086089
:1008100010BD0000001002400000FFF8FFFFF6FED0
:1008200008ED00E030B5144800684FF47A72B0FB70
:10083000F2F1B1F1807F00D31DE021F07F40401E36
:100840004FF0E022506150170F22002807DA1307FB
:100850001D0E0A4B00F00F04241F1D5503E0130763
:100860001C0E074B1C5400BF00204FF0E02290618B
:100870000720106100BF30BD0000002018ED00E02F
:1008800000E400E0704710B50022002340F66A142F
:10089000A14200D100BF0A1201249440A3B2DC435C
:1008A000048010BD21B1828942F40052828104E0AB
:1008B00082894DF6FF731A408281704702460020FC
:1008C000B1F5007F00D100BF13880B400BB10120B0
:1008D00000E00020704700002DE9F04786B0054693
:1008E0000E460024A24600BFA1460027B08900B1F1
:1008F00000BF2F462C8A4CF6FF700440F08804435A
:100900002C82AC894EF6F3100440B088318908433C
:10091000718908430443AC81AC8A4FF6FF40044020
:10092000B0890443AC8201A8FFF712FE1F4887423A
:1009300002D1DDF810A001E0DDF80CA0A88900F4D8
:10094000004040B10AEBCA0000EB0A1031684900D0
:10095000B0FBF1F807E00AEBCA0000EB0A103168BF
:100960008900B0FBF1F86420B8FBF0F00401200925
:10097000642101FB1089A88900F4004040B13220B5
:1009800000EBC900B0FBF1F000F00700044308E001
:10099000322000EB09106421B0FBF1F000F00F00F1
:1009A00004432C8106B0BDE8F08700000038014008
:1009B00001468888C0F308007047000000BF054961
:1009C000098801F040010029F9D00249091D088079
:1009D000704700000038014010B586B00446012180
:1009E00044F20400FFF7A4FD4FF40070ADF81400CA
:1009F00003208DF8160018208DF8170005A9194856
:100A0000FFF7A2FC4FF48060ADF8140004208DF8CD
:100A1000170005A91348FFF797FC25208DF8000063
:100A200003208DF801008DF8020001208DF80300ED
:100A30006846FFF745FD01940020ADF80800ADF8C9
:100A40000A00ADF80C00ADF810000C20ADF80E0057
:100A500001A90548FFF740FF01210348FFF722FFE6
:100A600006B010BD000801400038014000BFFEE79D
:100A7000014609B900207047C8B220B1C8B20E4A79
:100A8000105C401CF7E701F47F4028B10A48C1F32D
:100A90000722805C0930EEE701F47F0028B10648A8
:100AA000C1F30742805C1130E5E7034800EB1160B9
:100AB00000781930DFE700003A3A000802E008C881
:100AC000121F08C1002AFAD170477047002001E0C8
:100AD00001C1121F002AFBD170472DE9F04389B0F4
:100AE000064688469146002400E0641C305D2028BC
:100AF00004D0305D092801D04445F6D324B94FF025
:100B0000FF3009B0BDE8F0832146304601F0DAF845
:100B1000054615B94FF0FF30F3E7202101A8FFF794
:100B2000B6FB01AA4146304601F03CF9074617B929
:100B30004FF0FF30E5E701A93846A847C9F80000A3
:100B40000020DEE72DE9FC5F04468B4615461E4675
:100B5000DDE90C9ADDE90E7804F1140040600060D4
:100B600000BF1C346560A660C4F80C90C4F810A0E7
:100B70002321D4E9030201F0C4FED4E9033C634419
:100B80001A1F0F4BD4E9010101F0DAFC2060A776AF
:100B900067760020E061C4F82080C4F8248060619A
:100BA00020766065A0651C3C00902346054A2146DE
:100BB000019004F1440002F006FC0020BDE8FC9F17
:100BC000612F0008A13100082DE9F04704460E46C8
:100BD00017469846DDF8209084F80990607A20F056
:100BE00001006072E66127620020A062C4F82480E0
:100BF000002506E004F1140101EBC50001F04EFDF3
:100C00006D1C012DF6DBBDE8F08770B505460024AC
:100C100006E005F1140101EBC40001F092FD641C33
:100C2000012CF6DB70BD70B50446FFF79DFA054652
:100C3000206F10B12046216F88472846FFF798FAA9
:100C400070BD000010B520A001F00AFD2148017818
:100C500021A001F005FD1F48007800F0010010B14F
:100C600023A001F0FDFC1B48007800F0020010B149
:100C700022A001F0F5FC1748007800F0040010B144
:100C800021A001F0EDFC1348007800F0080010B13D
:100C900021A001F0E5FC0F48007800F0100010B131
:100CA00020A001F0DDFC0B48007800F0800030B19E
:100CB00008480F3001681DA001F0D2FC02E01FA01F
:100CC00001F0CEFC10BD0000627573206661756C8A
:100CD000743A0A0029ED00E05343425F4346535201
:100CE0005F424653523A3078253032582000000097
:100CF000494255534552522000000000505245438E
:100D00004953455252200000494D505245434953E2
:100D10004552522000000000554E53544B4552524C
:100D20002000000053544B45525220005343422DA3
:100D30003E424641523A253038580A000A00000027
:100D400070B504460D4600F01FFC002070BD70B564
:100D500004460D4600F0F0FC002070BD10B51548AB
:100D6000006890F82100C0F3400020B9002012492B
:100D70000870084610BD1148006840B14FF48072F9
:100D80000E4801680C48FFF799FA0B48F2E701F0AA
:100D900007F820B10AA10848FFF7A3FA03E00AA167
:100DA0000548FFF79EFA0AA10348FFF77BFA0248BD
:100DB000E0E70000CC0000206C400020D0000020C4
:100DC0006D7368200000000066696E736820000083
:100DD0003E00000010B501F077FA10BD0549096822
:100DE00091F8211060F34101024A126882F8211043
:100DF00070470000CC000020024A1060024A1160D7
:100E000070470000BC000020C00000207CB5002519
:100E100017491848FFF7F0FF7821012001F068F921
:100E2000154908600846006820B914A001F018FCB4
:100E3000681E7CBD0A2015214FF400630022CDE915
:100E40000010144914A002F062F8044600231A4668
:100E500013A10948006801F09FFE0120FFF7BEFFC3
:100E60001CB115B9204602F063F90020E1E700004B
:100E7000BC3E0008FC3D0008CC0000206E6F206DD9
:100E8000656D6F727920666F72207368656C6C0A8D
:100E900000000000A90E0008747368656C6C000007
:100EA0007368727800000000E948006890F821003B
:100EB00020F00100401CE649096881F82100FFF795
:100EC0004DFF054601F0CCFBC1E1FFF783FF04466F
:100ED000002C00DABBE11B2C05D10120DC4909689C
:100EE00081F82000B3E1DA48006890F8200001287A
:100EF0000DD15B2C05D10220D549096881F820006D
:100F0000A5E10020D249096881F8200045E0D048D9
:100F1000006890F8200002283FD10020CC490968E1
:100F200081F82000412C00D191E1422C00D18EE1CA
:100F3000442C11D1C6480068B0F8740058B1C5A05F
:100F400001F08EFBC2480068B0F87400401EC04932
:100F50000968A1F874007AE1432C1ED1BC480068EE
:100F6000B0F87400BA490968B1F87210884213DA0F
:100F7000B7480068B0F87420B54800682230815C3A
:100F8000B5A001F06DFBB2480068B0F87400401CD9
:100F9000AF490968A1F8740059E10CB1FF2C00D1E8
:100FA00055E1092C1FD1002503E0AAA001F058FB50
:100FB0006D1CA7480068B0F87400A842F5DCA4488E
:100FC0000068223002F062FCA14800682230FFF77E
:100FD00081F980B29E490968A1F872009C490968AC
:100FE000A1F8740033E17F2C01D0082C6ED1984811
:100FF0000068B0F8740000B929E195480068B0F8BD
:101000007200401E92490968A1F872009048006879
:10101000B0F87400401E8E490968A1F874008C482D
:101020000068B0F872008A490968B1F87410884203
:101030003FDD874B1B68B3F87230854E3668B6F8D3
:1010400074609A1B824B1B68B3F874305B1C804E33
:101050003668223699197E4B1B68B3F874607C4B56
:101060001B682233F01801F02BFC0022784800683E
:10107000B0F8721076480068223042547448006814
:10108000B0F87420724800682230111873A001F083
:10109000E7FA6F480068B0F8745003E06DA001F003
:1010A000DFFA6D1C6A480068B0F87200A842F5DAF1
:1010B0000BE06CA001F0D4FA002165480068B0F89C
:1010C00072206348006822308154C0E00D2C01D0AA
:1010D0000A2C2BD100F064FE012812D15C48006874
:1010E00090F8210000F0010010B15FA001F0B8FA03
:1010F00057480068B0F8721055480068223000F078
:10110000ABFDFFF72BFE054601F0AAFA502150482F
:1011100000682230FFF7BBF800204D490968A1F8AC
:1011200072004B490968A1F8740090E048480068D3
:10113000B0F87200502804DB002045490968A1F886
:10114000720043480068B0F8740041490968B1F87A
:101150007210884245DA3E4B1B68B3F872303C4E41
:101160003668B6F874609A1B394B1B68B3F8746024
:10117000374B1B682233F118354B1B68B3F87430BA
:101180005B1C334E36682236981901F099FB3048C3
:101190000068B0F874202E480068223084542C482F
:1011A000006890F8210000F0010050B12848006864
:1011B000B0F8742026480068223011182BA001F0E6
:1011C0004FFA23480068B0F8745003E021A001F002
:1011D00047FA6D1C1E480068B0F87200A842F5DCA2
:1011E00012E01B480068B0F87220194800682230ED
:1011F00084541748006890F8210000F0010018B1ED
:10120000214615A001F02CFA002411480068B0F81E
:101210007200401C0E490968A1F872000C48006871
:10122000B0F87400401C0A490968A1F87400084825
:101230000068B0F87200502808DB002004490968F3
:10124000A1F8720002490968A1F8740000BF3CE6E9
:10125000CC00002008000000256300000825732052
:1012600020080000082008000A0000002573000084
:1012700010B51448006800F0020010B112A001F08F
:10128000EFF91048006800F0804088B10D48C01E9A
:10129000007808B1FFF7D6FC0A48001F007808B1B3
:1012A00000F016FC0748801E008808B102F04CFBD5
:1012B0000448006800F0004010B109A001F0D0F926
:1012C00010BD00002CED00E06661696C656420765D
:1012D0006563746F722066657463680A00000000BD
:1012E0006465627567206576656E740A00000000AB
:1012F00010B502A001F0B4F9002010BD48656C6C77
:101300006F2052542D546872656164210A000000F8
:1013100010B50DA001F0A4F9104804680DE00222F8
:101320000FA12068FEF7E6FF00B905E00DA0D4E9A3
:10133000001201F095F900BF0C340E480068844299
:10134000EDD3002010BD00002D2D46756E6374692D
:101350006F6E204C6973743A0A000000BC000020D4
:101360005F5F0000252D313673202D2D2025730A57
:1013700000000000C00000202DE9F04704460D46A3
:1013800016461F46284601F02BFB814609F104084A
:10139000C4F8008025726660E76000202061BDE827
:1013A000F0872DE9F84F07460C464FF0000A002061
:1013B0002061E06808B1207A10B90020BDE8F88FFC
:1013C000D4F800801FB945464FF0010A00E03D46C1
:1013D000FEF7CAFE0090BAF1000F0ED1A5F10C0B7A
:1013E0009BF8080020F08000217A884204D0009801
:1013F000FEF7BEFE0020E1E700BF0026D4F804900F
:101400000BE02D68454501D1002507E0761C49F821
:10141000045BE068B04200D100E0F2E700BF009852
:10142000FEF7A6FE26612846C8E700002DE9F04F2A
:1014300091B000270FF2D409082304AA05210CA8B3
:10144000FFF79AFF4FF008084A46414631A001F0E5
:1014500007F9404600F01EFD37A001F001F900BF7A
:101460000CA93846FFF79DFF0746002545E004A874
:1014700050F82500A0F10C06FEF776FE8346307A80
:1014800020F080009DF83810884203D05846FEF7BF
:101490006FFE31E05846FEF76BFE344604F114004F
:1014A00001F02BF9B8B904F1140001F02EF98246CD
:1014B000208C618C23460822CDE9010A0091414627
:1014C00024A001F0CDF804F1140002F0FBF927A0EC
:1014D00001F0C6F80FE004F1140001F016F982469D
:1014E000208C618C23460822CDE9010A00914146F7
:1014F0001FA001F0B5F800BF6D1C1098A842B6DC23
:10150000002FADD1002011B0BDE8F08F6D61696C86
:10151000626F7800252D2A2E7320656E74727920F3
:1015200073697A652073757370656E642074687270
:101530006561640A00000000202D2D2D2D20202D36
:101540002D2D2D202D2D2D2D2D2D2D2D2D2D2D2DD8
:101550002D2D0A00252D2A2E2A73202530346420B3
:1015600020253034642025643A0000000A00000081
:10157000252D2A2E2A73202530346420202530344E
:10158000642025640A00000010B50848016808A01E
:1015900001F066F80B4801680BA001F061F80F48F4
:1015A00001680FA001F05CF810BD00004C000020A5
:1015B000746F74616C206D656D6F72793A2025646B
:1015C0000A0000005000002075736564206D656D91
:1015D0006F7279203A2025640A0000005400002030
:1015E0006D6178696D756D20616C6C6F6361746598
:1015F00064206D656D6F72793A2025640A000000E1
:101600002DE9F04F8FB000270FF2CC09082302AA72
:1016100002210AA8FFF7B0FE4FF008084A464146EB
:1016200030A001F01DF8404600F034FC34A001F079
:1016300017F800BF0AA93846FFF7B3FE0746002592
:1016400041E002A850F82500A0F10C06FEF78CFD41
:101650008346307A20F080009DF83010884203D015
:101660005846FEF785FD2DE05846FEF781FD3446CD
:1016700004F1140001F041F8A8B904F1140001F0DC
:1016800044F88246A08B234608224146CDE9000A51
:1016900021A000F0E5FF04F1140002F013F917A0F7
:1016A00000F0DEFF0DE004F1140001F02EF8824698
:1016B000A08B234608224146CDE9000A1AA000F07B
:1016C000CFFF00BF6D1C0E98A842BADC002FB1D12D
:1016D00000200FB0BDE8F08F73656D6170686F72A8
:1016E00065000000252D2A2E73207620202073759A
:1016F0007370656E64207468726561640A0000002E
:10170000202D2D2D202D2D2D2D2D2D2D2D2D2D2D23
:101710002D2D2D0A00000000252D2A2E2A732025AC
:101720003033642025643A00252D2A2E2A73202583
:101730003033642025640A002DE9F04FAFB04FF03C
:1017400000090FF21C1B082321AA012129A8FFF779
:1017500013FE4FF0080A5A465146434800F080FFF6
:10176000504600F097FB41A000F07AFF00BF29A986
:101770004846FFF716FE81464FF0000865E021A8B5
:1017800050F82800A0F10C05FEF7EEFC2E90287A08
:1017900020F080009DF8AC10884203D02E98FEF710
:1017A000E7FC50E07822294603A8FEF757FD2E9863
:1017B000FEF7DEFC2C4694F83500234608225146FD
:1017C00000903AA000F04CFF94F8340000F00F06AF
:1017D000012E03D138A000F043FF15E0022E03D103
:1017E00038A000F03DFF0FE01EB939A000F038FF2F
:1017F0000AE0042E03D139A000F032FF04E0032EEA
:1018000002D139A000F02CFFA76A00E07F1C3878D5
:101810002328FBD0D4E90A10791A401A64214843DE
:10182000E16AB0FBF1F00290216B206CCDE9000180
:10183000E369A06AC01AE36AC1181A462DA0029B88
:1018400000F00EFF00BF08F101082D98404596DC1E
:10185000B9F1000F8BD100202FB0BDE8F08F000050
:1018600074687265616400005C3B0008202D2D2DBA
:1018700020202D2D2D2D2D2D2D202D2D2D2D2D2DBF
:101880002D2D2D2D202D2D2D2D2D2D2D2D2D2D20A2
:10189000202D2D2D2D2D2D20202D2D2D2D2D2D2D9F
:1018A0002D2D2D202D2D2D0A00000000252D2A2E56
:1018B0002A7320253364200020726561647920201A
:1018C000000000002073757370656E6400000000F6
:1018D00020696E69742020200000000020636C6F76
:1018E00073652020000000002072756E6E696E67BF
:1018F00000000000203078253038782030782530FE
:1019000038782020202025303264252520202030E2
:10191000782530387820253033640A002DE9F047E7
:1019200090B000270FF2B409082303AA0A210BA8DC
:10193000FFF722FD4FF008084A46414629A000F073
:101940008FFE404600F0A6FA30A000F089FE00BFEE
:101950000BA93846FFF725FD074600262DE003A812
:1019600050F82600A0F10C04FEF7FEFB8246207A18
:1019700020F080009DF83410884203D05046FEF7D6
:10198000F7FB19E05046FEF7F3FB2546D5E90901C0
:101990002B460822CDE90001414625A000F060FE5B
:1019A000687A00F0010018B127A000F059FE02E0AB
:1019B00028A000F055FE00BF761C0F98B042CEDC88
:1019C000002FC5D101F04AFC0446214625A000F0B5
:1019D00047FE002010B0BDE8F087000074696D6517
:1019E00072000000252D2A2E732020706572696F09
:1019F00064696320202074696D656F7574202020F0
:101A000020202020666C61670A000000202D2D2D0B
:101A10002D2D2D2D2D2D2D202D2D2D2D2D2D2D2D03
:101A20002D2D202D2D2D2D2D2D2D2D2D2D2D0A0043
:101A3000252D2A2E2A7320307825303878203078CA
:101A40002530387820000000616374697661746520
:101A5000640A000064656163746976617465640A90
:101A60000000000063757272656E74207469636BA8
:101A70003A3078253038780A00000000FEF7F4FC90
:101A800019E04FF480710C48FEF7E9FC04210B4883
:101A9000FEF7E7FC4FF4FA7001F0FAFA4FF48071A8
:101AA0000548FEF7DEFC04210448FEF7D8FC4FF49D
:101AB000FA7001F0EDFAE4E700080140001401407B
:101AC00010B5044600F034FBFFF7D8FF10BD00004E
:101AD00010B51CA000F0C4FD1F4801781FA000F045
:101AE000BFFD1D48007800F0010010B121A000F0FA
:101AF000B7FD1948007800F0020010B120A000F0F6
:101B0000AFFD1548007800F0080010B11FA000F0EC
:101B1000A7FD1148007800F0100010B11EA000F0E1
:101B20009FFD0D48007800F0800030B10A480C306D
:101B300001681CA000F094FD02E01EA000F090FDE2
:101B400010BD00006D656D206D616E61676520667A
:101B500061756C743A0A000028ED00E05343425F5F
:101B6000434653525F4D4653523A307825303258EF
:101B7000200000004941434356494F4C20000000DB
:101B80004441434356494F4C200000004D554E53AD
:101B9000544B4552522000004D53544B4552522055
:101BA000000000005343422D3E4D4D41523A253036
:101BB00038580A000A0000002DE9F0478146002647
:101BC000002799F8000028B90021084600F0A8F87D
:101BD000BDE8F0871B48046827E006221AA12068A8
:101BE000FEF788FB00B11FE0206800F106084846B8
:101BF000FEF770FB8246524641464846FEF77AFBA6
:101C000088B926B947463846FEF764FB0646414682
:101C1000384601F082FE0546B54200DA2E464146BE
:101C20000BA000F01DFD00BF0C340A480068844280
:101C3000D3D327B132463946484601F084F800BF75
:101C4000C6E70000BC0000205F5F636D645F0000BA
:101C500025730A00C000002038B504460D4601E097
:101C6000641C6D1E2DB120782028F9D02078092819
:101C7000F6D00DB9002038BD6A4629462046FEF749
:101C80002CFF08B90098F6E7204600E0401C0178D8
:101C9000202902D001780029F8D1002101702146C5
:101CA00002A000F0DDFC4FF0FF30E4E725733A209E
:101CB000636F6D6D616E64206E6F7420666F756EFC
:101CC000642E0A002DE9F04106460D460027104813
:101CD000046815E006220FA12068FEF70BFB00B197
:101CE0000DE02168881D2A463146FEF703FB28B91E
:101CF000A81D2168085C08B9A76805E000BF0C347E
:101D0000064800688442E5D300BF3846BDE8F0814C
:101D1000BC0000205F5F636D645F0000C0000020B6
:101D200070B505460E460FA000F09AFC14480468F2
:101D30000EE0062213A12068FEF7DCFA00B106E0EF
:101D4000D4E90002811D11A000F08AFC00BF0C3410
:101D5000114800688442ECD310A000F081FC002000
:101D600070BD000052542D54687265616420736820
:101D7000656C6C20636F6D6D616E64733A0A000070
:101D8000BC0000205F5F636D645F0000252D31366D
:101D900073202D2025730A00C00000200A000000D7
:101DA000012070472DE9F04782460E469046544682
:101DB0000025002755E003E000202070641C6D1C06
:101DC0002078202802D02078092801D1B542F3D309
:101DD000082F12D326A000F043FC4FF0000906E0C4
:101DE00058F829102AA000F03BFC09F10109B94577
:101DF000F6D326A000F034FC35E0B54200D332E043
:101E0000207822281CD1641C6D1C48F827407F1CB8
:101E100009E020785C2804D16078222801D1641C74
:101E20006D1C641C6D1C2078222801D0B542F0D3B3
:101E3000B54200D317E000202070641C6D1C10E038
:101E400048F827407F1C01E0641C6D1C2078202886
:101E500004D02078092801D0B542F5D3B54200D38B
:101E600001E0B542A7D300BF3846BDE8F0870000C7
:101E7000546F6F206D616E7920617267732021202D
:101E80005765206F6E6C79205573653A0A00000023
:101E90002573200010B5044602E004A000F0E0FB2A
:101EA000201EA4F10104F8D110BD00002D00000097
:101EB00030B51A4C436824681919884215D04B88EC
:101EC0009BB9174B1B6899420FD0164B1B688B426E
:101ED00001D1144B18604B684360104B1B68C31A48
:101EE0000E4D4C682D682C44A3600C4C836824680C
:101EF0001A19824211D053887BB90A4B1B6883425E
:101F000001D1084B1A6043685360044B1B68D31A15
:101F1000024D44682D682C44A36030BD4000002071
:101F200044000020480000202DE9F04F86B00D4607
:101F30009C46DDE9106401960F9B04F04008B8F15F
:101F4000000F02D0DFF8708101E0DFF87081CDF87A
:101F5000008004F01008B8F1000F01D024F0010453
:101F600004F00108B8F1000F02D04FF0300801E092
:101F70004FF02008C246002704F00208B8F1000F15
:101F800011D0002A02DA2D2752420CE004F0040896
:101F9000B8F1000F01D02B2705E004F00808B8F1D4
:101FA000000F00D02027002142B94FF0300B8846A7
:101FB000491C0DF1080909F808B01DE01AE0E146D6
:101FC000B9F10A0F08D14FF00A0BB2FBFBFE0BFB75
:101FD0001E28B2FBFBF202E002F00F08120900BF5C
:101FE000DDF8009019F808B08846491C0DF1080981
:101FF00009F808B0002AE2D1B14200DD0E469B1B71
:1020000004F01108B8F1000F10D117B1002B00DD5A
:102010005B1E06E0A84203D24FF0200880F8008043
:10202000401CB3F10008A3F10103F3DC27B1A8427F
:1020300000D207705B1E401C04F01008B8F1000FBE
:102040000AD104E0A84201D280F800A0401CB3F1FC
:102050000008A3F10103F5DC06E0A84203D24FF02B
:10206000300880F80080401CB046761E8845F4DCBD
:1020700008E0A84205D20DF1080818F8018080F8A0
:102080000080401CB1F10008A1F1010104DDDDF880
:102090000480B8F1000FECD106E0A84203D24FF063
:1020A000200880F80080401CB3F10008A3F1010370
:1020B000F3DC06B0BDE8F08F4B3B00083A3B00086C
:1020C0001CB514200A214FF400630022CDE9001052
:1020D000044905A000F01BFF0446204601F028F843
:1020E0001CBD0000C11A00086D61696E000000008F
:1020F00070B504460D4604FB05F000F02BFB0646C8
:102100002EB104FB05F20021304600F0FAFB304608
:1021100070BD000010B5044C02E020688047241D0B
:1021200002488442F9D310BDE83D0008F03D0008A4
:1021300010B5044C02E020688047241D0248844208
:10214000F9D310BDF03D0008F83D000810B5FEF7CA
:102150000BF8044604480088401C00B2024908807D
:102160002046FEF705F810BD9C00002010B5FDF7D5
:10217000FBFF04460C480088401E00B20A49088054
:102180000846B0F9000000280ADC0020088020463C
:10219000FDF7EEFF0548006828B100F069FC02E099
:1021A0002046FDF7E5FF10BD9C000020A0000020A8
:1021B00070B5054605B970BD1D480068854203D35A
:1021C0001C480068854200D3F5E7A5F10C044FF0E8
:1021D000FF31194800F01CFD608818B12088B0F567
:1021E000F55F08D015A000F03BFA238862882146ED
:1021F00019A000F035FA002060804FF4F5502080DF
:1022000021480068844201D21F4804600849606880
:102210000968611A401A1D490968081A1B490860B3
:102220002046FFF745FE044800F0C9FC00BFC2E7A6
:1022300040000020440000204C030020746F206602
:10224000726565206120626164206461746120624E
:102250006C6F636B3A0A00006D656D3A203078252B
:102260003038782C207573656420666C61673A207D
:1022700025642C206D6167696320636F64653A2073
:102280003078253034780A004800002050000020C3
:10229000004870476C040020004870476C400020E4
:1022A00070B5FEF78FFAFEF73BFAFEF7BBFAFFF7C1
:1022B00031FFFFF7F1FF0446FFF7EAFF054621462D
:1022C00000F05CFD70BD000010B54FF0FF34202120
:1022D0000B48FEF7F3FA20B10948FEF769FBC4B2D8
:1022E0000BE008210648FEF7E9FA18B10821044876
:1022F000FEF7C9FA0A2000F0CBFEE0B210BD0000E4
:10230000003801402DE9F0410546002400260D2744
:10231000284600F00FFD064600BF09E0285D0A28A8
:1023200002D13846FEF74AFB285DFEF747FB641CE6
:10233000B442F3D3BDE8F08170B505462C1D30489A
:10234000006838B128462E4909688847064606B90C
:1023500070BD00BF2BA0E16B00F082F92DA0216AB7
:1023600000F07EF92FA0616A00F07AF931A0A16A2D
:1023700000F076F933A0E16A00F072F935A0216827
:1023800000F06EF937A0616800F06AF939A0A16821
:1023900000F066F93BA0E16800F062F93DA0216918
:1023A00000F05EF93FA0616900F05AF941A0A1690F
:1023B00000F056F943A0E16900F052F945A0216B05
:1023C00000F04EF947A0616B00F04AF949A0A16BFB
:1023D00000F046F9287800F0040048B100F080FED3
:1023E0000646314647A000F03BF9FFF7A5F902E0A9
:1023F0004CA000F035F9FEF73BFF00BFFEE7000000
:10240000340000207073723A203078253038780A12
:10241000000000007230303A203078253038780AD9
:10242000000000007230313A203078253038780AC8
:10243000000000007230323A203078253038780AB7
:10244000000000007230333A203078253038780AA6
:10245000000000007230343A203078253038780A95
:10246000000000007230353A203078253038780A84
:10247000000000007230363A203078253038780A73
:10248000000000007230373A203078253038780A62
:10249000000000007230383A203078253038780A51
:1024A000000000007230393A203078253038780A40
:1024B000000000007231303A203078253038780A38
:1024C000000000007231313A203078253038780A27
:1024D000000000007231323A203078253038780A16
:1024E00000000000206C723A203078253038780ADD
:1024F000000000002070633A203078253038780AD8
:102500000000000068617264206661756C74206F61
:102510006E207468726561643A2025730D0A0D0A95
:102520000000000068617264206661756C74206F41
:102530006E2068616E646C65720D0A0D0A00000001
:10254000F0B504460D461646301D20F00700403811
:102550000146002203E00C4F41F82270521C102A61
:10256000F9D30D624FF0000CC1F824C0C1F828C0A7
:10257000C1F82CC0C1F830C04B638C634FF0807C35
:10258000C1F83CC0F0BD0000EFBEADDE10B5FDF7F8
:10259000EBFD044604480078401C034908702046BF
:1025A000FDF7E6FD10BD00003C00002010B5FDF772
:1025B000DBFD044604480078401E034908702046AD
:1025C000FDF7D6FD10BD00003C00002070B50446AC
:1025D0002068A0F11405284600F064FD002070BDBD
:1025E0002DE9F04105460C469046204600F0B6FD28
:1025F000B8F1000F03D0B8F1010F23D105E004F1C9
:102600001401284600F062F81DE02E680FE0A6F1E4
:10261000140794F8350097F83510884206DA04F16B
:10262000140107F1140000F051F802E03668AE42E0
:10263000EDD100BFAE4204D104F11401284600F0F0
:1026400045F800E000BF00BF0020BDE8F08110B5F4
:10265000044604F1140000F01BF8002010BD000037
:102660000FB438B505A80090FF210848009B049AD4
:1026700000F04EFF0446FF2C00D9FF240348FFF76B
:1026800041FE0020009038BC5DF814FB4C02002095
:1026900040600060704740600060704740600060CC
:1026A00070470268516002680A60016048607047C4
:1026B0000268516002680A60016048607047026801
:1026C000516002680A6001604860704742681160AA
:1026D00042684A6041600860704701460868884265
:1026E00001D1012070470020FCE7014608688842BC
:1026F00001D1012070470020FCE7014608688842AC
:1027000001D1012070470020FCE7014600200A4665
:1027100001E01268401C13688B42FAD17047D0E97F
:1027200000215160D0E900121160406000607047E4
:10273000D0E900215160D0E90012116040600060D2
:102740007047D0E900215160D0E90012116040606B
:10275000006070472DE9F041054615B90020BDE83D
:10276000F081E81C20F003054E480068854201D93D
:102770000020F4E70C2D00D20C254FF0FF314A4821
:1027800000F046FA4948006849490968461A7EE05F
:102790004748006884196088002874D106F10C004D
:1027A0006168081AA8426ED306F10C006168091A24
:1027B00005F11800814230D306F10C0000EB05084A
:1027C0003B48006800EB08074FF4F55038800020C4
:1027D000788060687860BE60C4F804800120608002
:1027E0003048796800680C30814205D030497868FB
:1027F00009680844C0F808802E48016805F10C00FB
:1028000008442C4908602C4800680968884219D29D
:10281000284800682849086014E0012060802449A5
:1028200060680968611A401A224909680844214908
:102830000860214800680968884203D21D48006882
:102840001D4908604FF4F550208018480068844204
:1028500012D107E015480068406815490968084426
:102860001249086011480068408828B10F48006884
:10287000124909688842EDD10B4800F0A0F904F133
:102880000C006CE7FFE70A480068304446680548DA
:102890000068401BB0423FF67BAF034800F08FF961
:1028A00000205CE74C0000204C0300204800002082
:1028B0004000002050000020540000204400002070
:1028C00070B50C46014623468B4210D29D188D42AE
:1028D0000DD91144134405E05D1E2B462E784D1E84
:1028E00029462E70151EA2F10102F5D108E003E081
:1028F00013F8015B01F8015B151EA2F10102F7D18B
:1029000070BDF0B50C460546E6B2042A15D300F0BA
:10291000030797B9014646EA062343EA034304E066
:1029200008C108C108C108C1103A102AF8D201E054
:1029300008C1121F042AFBD20D4601E005F8016B05
:10294000171EA2F10102F9D1F0BD2DE9F0410646B2
:102950000F46304600F044F80546E868FFF7FAFEF7
:10296000044614B90020BDE8F08100212046EA6841
:10297000FFF7C7FF26720020607208223946204602
:1029800000F0E1F9FDF7F0FB804604F10C01281D91
:10299000FFF787FE4046FDF7EBFB2046E3E770B507
:1029A000044600202072FDF7DFFB054604F10C0011
:1029B000FFF7B5FE2846FDF7DBFB2046FFF7F8FBE7
:1029C00070BD70B5044600202072FDF7CDFB0546B2
:1029D00004F10C00FFF7A3FE2846FDF7C9FB70BD0C
:1029E000024600210AE0074800EB011000789042FF
:1029F00003D1044800EB01107047491C0429F2DBA5
:102A00000020F9E7580000202DE9F04704460D4664
:102A1000904600262846FFF7E3FF0746FFF796FBA0
:102A20007E6802E0A6F10C003668381D8642F9D1B6
:102A3000FFF79CFB45F080002072082241462046AB
:102A400000F081F9FDF790FB814604F10C01381D7F
:102A5000FFF727FE4846FDF78BFBBDE8F0870146F0
:102A6000087A00F0800008B1012070470020FCE7E0
:102A70002DE9F041FDF778FB07461848008838BB80
:102A800017480068FDF7F4FF461E164850F8360058
:102A9000A0F1140414480068844218D013490E7041
:102AA0001148056804601248007850B904F11C010F
:102AB00005F11C00FDF75FFB3846FDF759FBBDE84B
:102AC000F08104F11C0105F11C00FDF754FB00BF6F
:102AD0003846FDF74DFB00BFF1E700009C000020E9
:102AE000980000206C030020A0000020A40000201B
:102AF0003C00002070B50446FDF736FB054614F88F
:102B0000340F20F00F0040F0010020706278343C58
:102B10000A4B03EBC20004F11401426811604268E1
:102B20004A604160086000BF0549A06B096808431E
:102B3000034908602846FDF71BFB70BD6C030020AD
:102B40009800002070B50446FDF70EFB054604F121
:102B50001400D0E900215160D0E9001211604060FA
:102B6000006000BF94F83510094A02EBC10001680B
:102B7000814201D1012100E0002129B10548A16B6A
:102B800000688843034908602846FDF7F1FA70BDE4
:102B90006C030020980000202DE9F04104460D460A
:102BA00016461F462A4602212046FFF72DFF2046E3
:102BB000FFF74DFDA68367720020BDE8F08170B578
:102BC00004460025FDF7D0FA064604F11400FFF78D
:102BD00084FD28B904F11400FFF7F8FC01250EE08C
:102BE000A08B4FF6FF71884203DAA08B401CA083B4
:102BF00005E03046FDF7BCFA6FF0020070BD3046CC
:102C0000FDF7B6FA012D01D1FFF732FF0020F5E7FD
:102C100073B50546FDF7A8FA0646A88B002806DD21
:102C2000A88B401EA8833046FDF7A2FA28E0019841
:102C300028B93046FDF79CFA6FF001007CBD00F02A
:102C40004FFA0446002020636A7A214605F11400F9
:102C5000FFF7C6FC0198002809DD01AA002104F154
:102C6000440000F06BFB04F1440000F0C3FB30466D
:102C7000FDF77EFAFFF7FCFE206B08B1206BDDE765
:102C80000020DBE708B509A0FFF7EAFC0AA0FFF780
:102C9000E7FC12A0052301220321009012A0FFF7F8
:102CA000DFFC19A0FFF7DCFC08BD00000A205C2057
:102CB0007C202F0A000000002D205254202D2020BF
:102CC000202020546872656164204F7065726174C1
:102CD000696E672053797374656D0A0044656320DB
:102CE0003238203230323100202F207C205C2020EE
:102CF00020202025642E25642E2564206275696CB1
:102D0000642025730A0000002032303036202D2048
:102D10003230323020436F70797269676874206294
:102D2000792072742D746872656164207465616DB8
:102D30000A00000001460A4600E0521C10780028F4
:102D4000FBD1501A704770B50346A2B118460C4625
:102D500000BF14F8016B00F8016B3EB902E00025DA
:102D600000F8015B551E2A1EF9D102E0551E2A1EED
:102D7000EFD100BF00BF184670BD00002DE9F04143
:102D800005460E46E81C20F0030726F00308B8F1BC
:102D9000180F09D9A8F11800B84205D3A8EB07000D
:102DA00018381E49086006E0324629461CA0FFF785
:102DB00057FCBDE8F0812948076004684FF4F550DE
:102DC0002080164800680C3060600020A0606080A1
:102DD0002249606809680844214908604FF4F550A9
:102DE0000968088001201E49096848800B4800686E
:102DF0000C301B4909684860084800680C301849C5
:102E0000096888600023012216A11848FFF7C4FE54
:102E1000124800681649086000BFCAE74C0000204D
:102E20006D656D20696E69742C206572726F7220F9
:102E3000626567696E2061646472657373203078BF
:102E400025782C20616E6420656E64206164647254
:102E500065737320307825780A0000004000002058
:102E60004400002068656170000000004C030020F1
:102E70004800002010B500200B490880002405E020
:102E80000A4901EBC400FFF706FC641C202CF7DBA9
:102E90001F2007490870002006490860064908609D
:102EA0000648FFF7F8FB10BD9C0000206C030020D3
:102EB000A4000020A000002098000020A80000200E
:102EC00070B508480068FDF7D3FD451E064850F868
:102ED0003500A0F114040548046004F11C00FDF75E
:102EE00078F970BD980000206C030020A00000203D
:102EF00010B5002405E0044901EBC400FFF7CEFB48
:102F0000641C002CF7D010BDB000002070472DE9E4
:102F1000FF5F06460F4690461D46DDE90EAB314683
:102F20000120FFF712FD8146B9F1000F03D1002007
:102F300004B0BDE8F09F2846FFF70CFC044624B916
:102F40004846FFF72CFD0020F2E743463A4631465B
:102F500048468DE8300CFDF7F5FD4846E8E70000EF
:102F600070B513480468FDF7FFF805462046FDF7E5
:102F70005AFE2046FFF7E6FD042084F8340004F1F1
:102F8000440000F00CFA2046FFF769FD012803D148
:102F90002046FFF716FD04E004F114010548FFF791
:102FA00087FBFFF765FD2846FDF7E2F870BD0000DE
:102FB000A0000020A800002001E000F001F8FCE7DC
:102FC00070B528E0FDF7D0F8054600BF134801684A
:102FD000814201D0012100E0002119B92846FDF706
:102FE000C7F819E00D480068A0F1140404F11400BA
:102FF000D0E900215160D0E900121160406000600A
:1030000000BFA06AFFF7D4F82046FFF7C8FC2846A7
:10301000FDF7AEF800BFD5E700BF70BDA8000020E7
:103020001FB520201F21C200074BCDE90032CDE99A
:1030300002100023054A06A1074800F00FF80648D1
:1030400000F076F81FBD00004C010020B92F0008E9
:103050007469646C65000000D40000202DE9FF5FF6
:1030600005460C4616461F46DDE910ABDDE90E8924
:10307000224601212846FFF7C7FC3B46324621463F
:1030800028468DE8000FFDF75DFD04B0BDE8F09F18
:1030900070B50446204600F0C5F80546284600F005
:1030A00025F870BD70B5044694F8340000F00F00A8
:1030B000022802D04FF0FF3070BDFDF755F80546ED
:1030C00004F11400FFF734FB04F1440000F008FAA7
:1030D0002846FDF74DF82046FFF70CFD0020EBE7F2
:1030E0000148006870470000A000002031B5FDF7DE
:1030F0003BF805460D480468204600F02FF86A4664
:10310000002104F1440000F019F904F1440000F03A
:1031100071F92846FDF72CF8FFF7AAFC206B801CFC
:1031200008B900202063002038BD0000A000002066
:1031300010B504463434A07860706178012088406E
:103140006060022004F834092046FFF7ABFFFFF768
:10315000C7FF08B1FFF78CFC002010BD70B5044616
:1031600094F8340000F00F00012802D04FF0FF3037
:1031700070BDFCF7F9FF05462046FFF7E3FC94F825
:10318000340020F00F0040F0020084F8340004F115
:10319000440000F0A5F92846FCF7EAFF0020E7E725
:1031A00070B5044625466FF00100286305F1140050
:1031B000FFF7BEFA2846FFF79DFCFFF759FC70BDEC
:1031C00070B5FCF7D1FF05461448046894F8340044
:1031D00000F00F0001281CD1D4E90510814218D05D
:1031E00004F11400FFF7A4FA94F835200C4B03EB1C
:1031F000C20004F114014268116042684A604160F3
:10320000086000BF2846FCF7B3FFFFF731FC002041
:1032100070BD2846FCF7ACFF0020F9E7A0000020B5
:103220006C0300200146002902DA4FF0FF3014E061
:103230004FF47A7291FBF2F24FF47A7302FB03F0CF
:103240001A4691FBF2F302FB13124FF47A735A43BE
:1032500002F2E73292FBF3F2104470470148006833
:10326000704700003800002010B50A480068401C74
:1032700008490860FFF734FF0446206C401E2064B4
:10328000206C18B9E06B2064FFF79AFF00F004F897
:1032900010BD0000380000207CB56846FFF7FEF93D
:1032A000FFF7DCFF0546FCF75FFF06463AE02248E1
:1032B0000068A0F11404A06A281A6FF00041884247
:1032C0002ED22046FDF7A1FC607A00F0020018B96A
:1032D000607A20F00100607204F114016846FFF783
:1032E000EEF9D4E907108847FFF7B8FF05466846AE
:1032F000FFF7FBF900B115E004F11400FFF721FA24
:10330000607A00F0020060B1607A00F0010040B124
:10331000607A20F001006072204600F06BF800E057
:1033200005E000BF0448FFF7E0F90028BFD000BF68
:103330003046FCF71DFF7CBDB00000202DE9F041B8
:1033400004460E461546FCF70FFF0746052E1ED213
:10335000DFE806F00603090E1300606A286017E034
:103360002868606214E0607A20F0020060720FE06A
:10337000607A40F0020060720AE0607A00F00100BA
:1033800010B10120286001E00020286000E000BFAB
:1033900000BF3846FCF7ECFE0020BDE8F08170B5B8
:1033A0000446FCF7E1FE05462046FDF72EFC607A58
:1033B00020F0010060722846FCF7DAFE2046FFF795
:1033C00000FB002070BD2DE9F84307460C4615466A
:1033D0001E46DDE9088922460A213846FFF714FB1C
:1033E0004346324629463846CDF80090FDF7ECFBBF
:1033F000BDE8F8832DE9F8430546FCF7B5FE8046A5
:103400002846FDF702FC687A20F001006872FFF799
:1034100025FF696A0844A8622F4F009700242AE01C
:1034200019E05DF824201168142202EBC402881A06
:10343000826AAB6AD21A00D108E0826AAB6AD21AF9
:103440006FF000439A4200D20CE000BF5DF8240008
:1034500000684DF824005DF8240007EBC4014968BA
:103460008842DED100BF2CB15DF824000830611C19
:103470004DF82100641C002CD2D018480068401C74
:10348000164908600846066805F114010098FFF720
:1034900016F9022412E006F0030060B9C4F101033A
:1034A00005F1140202EBC301C4F101025DF8220030
:1034B000FFF705F900E003E0B608641C012CEAD927
:1034C00000BF687A40F0010068724046FCF750FE89
:1034D0000020BDE8F8830000B0000020B800002004
:1034E00070B50446607A00F0010010B94FF0FF306B
:1034F00070BDFCF739FE05462046FDF786FB607A75
:1035000020F0010060722846FCF732FE0020EFE751
:103510002DE9FF4F89B081464C460A9809EB000619
:103520004E4504D24FF0FF36A6EB09000A9077E132
:103530000B980078252806D0B44202D20B98007868
:103540002070641C69E1002526E00B98401C0B905C
:103550000B9800782D2802D145F010051CE00B983F
:1035600000782B2802D145F0040515E00B9800786F
:10357000202802D145F008050EE00B98007823289A
:1035800002D145F0200507E00B980078302802D1E1
:1035900045F0010500E000E0D7E700BF4FF0FF373E
:1035A0000B98007830380A2804D20BA800F0A2F952
:1035B00007460EE00B9800782A280AD10B98401C89
:1035C0000B900C9880C80C90002F02DA7F4245F0D7
:1035D00010054FF0FF3A0B9800782E281CD10B985D
:1035E000401C0B900B98007830380A2804D20BA8A6
:1035F00000F080F982460AE00B9800782A2806D16C
:103600000B98401C0B900C9850F804AB0C90BAF13E
:10361000000F01DA4FF0000A002004900B980078A8
:10362000682803D00B9800786C2805D10B98007897
:1036300004900B98401C0B900A2005900B98007882
:103640006F2873D00CDC632813D004DC25286ED0DF
:1036500058286DD195E064286BD06928F9D197E09E
:10366000702873D0732825D075286ED07828F0D1B3
:103670008AE005F0100040B904E0B44201D22020F5
:103680002070641C781E071EF7DC0C9810F8041BD1
:103690000C90C8B20790B44201D207982070641C05
:1036A00004E0B44201D220202070641C781E071E62
:1036B000F7DCB2E00C98006806900C98001D0C90A6
:1036C000069808B960A006904FF0000801E008F1E4
:1036D0000108B84504D0069810F808000028F6D173
:1036E000BAF1000F02DDD04500DDD04605F0100034
:1036F00048B904E0B44201D220202070641C38464E
:103700007F1E4045F6DC002008900BE0B44202D258
:10371000069800782070641C0698401C0690089853
:10372000401C089008984045F0DB09E026E01FE0C7
:1037300032E02CE00AE0B44201D220202070641C68
:1037400038467F1E4045F6DC67E024E0781C10B95F
:10375000082745F00105CDE9007A02950C9804C8C8
:10376000102331460C902046FEF7DEFB044654E061
:10377000B44201D225202070641C4EE00820059040
:103780001DE045F0400500BF1020059017E000BF88
:1037900045F0020500BF12E0B44201D2252020709E
:1037A000641C0B98007830B1B44202D20B980078B8
:1037B0002070641C02E00B98401E0B902DE000BFAF
:1037C00004986C2807D10C9850F804BB0C9005F0B5
:1037D0000200B8B116E0049868280BD10C9830F8B4
:1037E000041B1FFA81FB0C9005F0020050B10FFA88
:1037F0008BFB07E00C9850F804BB0C9005F002001E
:1038000000B100BFCDE9007A02955A463146204604
:10381000059BFEF789FB044600BF0B98401C0B90EC
:103820000B98007800287FF483AE0A9838B1B44230
:1038300002D20020207002E0002006F8010CA4EB68
:1038400009000DB0BDE8F08F284E554C4C29000002
:10385000002070470020704700207047002070470C
:1038600010B5FCF781FCFEF71BFDFFF70BFAFFF725
:103870003FFBFFF7FFFAFEF723FCFFF747FBFFF7DD
:10388000CFFBFFF71DFB002010BD000070B5044604
:1038900009A0FEF7E5FEFEF783FA012802D12046D3
:1038A000FEF78AF9FDF75AFA05462246294603A093
:1038B000FEF7D6FE70BD00000A00000025732573D8
:1038C0000000000070B5044625680CE0A5F1140660
:1038D000314606A0FEF7C4FE2868A04202D004A02C
:1038E000FEF7BEFE2D68A542F0D170BD2573000025
:1038F0002F0000000146002009E00B685A1C0A60F6
:103900001A7800EB800302EB4302A2F130000A6850
:103910001278303A0A2AF0D3704710B503461A4697
:1039200001E0521C491C107828B1087818B11078B1
:103930000C78A042F5D0D01A10BD10B54FF4E1308C
:10394000FDF74AF8002010BD10B51EA0FEF788FE56
:103950002048018820A0FEF783FE1E48008800F062
:10396000010010B122A0FEF77BFE1A48008800F08B
:10397000020010B121A0FEF773FE1648008800F087
:10398000040010B120A0FEF76BFE1248008800F082
:10399000080010B11EA0FEF763FE0E48008800F478
:1039A000807010B11CA0FEF75BFE0A48008800F48E
:1039B000007010B11BA0FEF753FE05A0FEF750FEED
:1039C00010BD00007573616765206661756C743A9F
:1039D0000A0000002AED00E05343425F4346535281
:1039E0005F554653523A3078253032582000000057
:1039F000554E444546494E5354522000494E565365
:103A00005441544520000000494E565043200000C8
:103A10004E4F435020000000554E414C49474E4503
:103A20004420000044495642595A45524F20000054
:103A300010B5FFF727F9002010BD000001000200BB
:103A40000100030001000200010004000100020067
:103A50000100030001000200010005000100020056
:103A60000100030001000200010004000100020047
:103A70000100030001000200010006000100020035
:103A80000100030001000200010004000100020027
:103A90000100030001000200010005000100020016
:103AA0000100030001000200010004000100020007
:103AB00001000300010002000100070001000200F4
:103AC00001000300010002000100040001000200E7
:103AD00001000300010002000100050001000200D6
:103AE00001000300010002000100040001000200C7
:103AF00001000300010002000100060001000200B5
:103B000001000300010002000100040001000200A6
:103B10000100030001000200010005000100020095
:103B20000100030001000200010004000100020086
:103B3000010003000100020001003031323334354E
:103B40003637383961626364656600303132333448
:103B5000353637383941424344454600252D2A2E13
:103B60007320707269202073746174757320202033
:103B700020202073702020202020737461636B202C
:103B800073697A65206D61782075736564206C6552
:103B90006674207469636B20206572726F720A000C
:103BA0006C6973745F6D656D006C697374206D650D
:103BB0006D6F727920757361676520696E666F72CB
:103BC0006D6174696F6E0068656C6C6F007361790C
:103BD0002068656C6C6F20776F726C64007665721C
:103BE00073696F6E0073686F772052542D5468723A
:103BF0006561642076657273696F6E20696E666FA9
:103C0000726D6174696F6E005F5F636D645F76658E
:103C10007273696F6E0073686F772052542D546809
:103C2000726561642076657273696F6E20696E6675
:103C30006F726D6174696F6E006C6973745F746824
:103C400072656164006C6973742074687265616484
:103C5000005F5F636D645F6C6973745F7468726545
:103C60006164006C69737420746872656164006CCF
:103C70006973745F73656D006C6973742073656D2F
:103C80006170686F726520696E2073797374656DF9
:103C9000005F5F636D645F6C6973745F73656D0073
:103CA0006C6973742073656D6170686F72652069EB
:103CB0006E2073797374656D006C6973745F6D61E8
:103CC000696C626F78006C697374206D61696C2037
:103CD000626F7820696E2073797374656D005F5F21
:103CE000636D645F6C6973745F6D61696C626F783A
:103CF000006C697374206D61696C20626F78206953
:103D00006E2073797374656D006C6973745F746988
:103D10006D6572006C6973742074696D65722069D9
:103D20006E2073797374656D005F5F636D645F6CA3
:103D30006973745F74696D6572006C697374207463
:103D4000696D657220696E2073797374656D006C9E
:103D5000697374006C69737420616C6C2073796D85
:103D6000626F6C20696E2073797374656D005F5F9C
:103D7000636D645F68656C700052542D54687265A1
:103D80006164207368656C6C2068656C702E005FE0
:103D90005F636D645F7073004C6973742074687244
:103DA0006561647320696E2074686520737973742B
:103DB000656D2E005F5F636D645F667265650053BD
:103DC000686F7720746865206D656D6F72792075F6
:103DD0007361676520696E207468652073797374F8
:103DE000656D2E005D380008553800083B39000825
:103DF000513800080D0E000859380008A03B000893
:103E0000A93B000889150008C73B0008CD3B000806
:103E1000F1120008DD3B0008E53B0008313A0008DC
:103E2000083C0008163C0008313A0008393C0008FC
:103E3000453C000839170008513C0008633C000865
:103E4000391700086F3C0008783C0008011600088C
:103E5000913C0008A03C000801160008B93C00088D
:103E6000C63C00082D140008DE3C0008F13C0008A8
:103E70002D140008093D0008143D00081D19000814
:103E8000293D00083A3D00081D1900084F3D000873
:103E9000543D0008111300086E3D0008793D0008EC
:103EA000211D00088F3D0008983D00084F0D0008B7
:103EB000B43D0008BF3D0008410D0008DC3E00088D
:103EC00000000020D4000000BC0A0008B03F000839
:103ED000D40000209C440000CC0A000800A24A0440
:103EE00000000000000000000102030406070809AA
:103EF0000000000001020304010203040607080990
:103F0000020406080000000000000000000000009D
:103F100000000000000000000000000000000000A1
:103F20000000000000000000000000000000000091
:103F300000000000010000005C0000205C00002088
:103F400078000000020000006C0000206C000020DF
:103F500020000000050000007C0000207C00002004
:103F6000300000000A0000008C0000208C000020BF
:103F70002C00000000000000000000000000000015
:103F80000000000000000000000000000000000031
:103F90000000000000000000000000000000000021
:103FA0000000000000000000000000000000000011
:0400000508000145A9
:00000001FF
