:020000040800F2
:1000000070460020CD010008F5040008B102000888
:10001000F10400087B0300085F08000800000000EE
:1000200000000000000000000000000019050008AA
:100030007F030008000000003B02000805060008DE
:10004000E7010008E7010008E7010008E7010008F0
:10005000E7010008E7010008E7010008E7010008E0
:10006000E7010008E7010008E7010008E7010008D0
:10007000E7010008E7010008E7010008E7010008C0
:10008000E7010008E7010008E7010008E7010008B0
:10009000E7010008E7010008E7010008E7010008A0
:1000A000E7010008E7010008E7010008E701000890
:1000B000E7010008E7010008E7010008E701000880
:1000C000E7010008E7010008E7010008E701000870
:1000D000E701000879070008E7010008E7010008C8
:1000E000E7010008E7010008E7010008E701000850
:1000F000E7010008E7010008E7010008E701000840
:10010000E7010008E7010008E7010008E70100082F
:10011000E7010008E7010008E7010008E70100081F
:10012000E7010008E7010008E7010008E70100080F
:1001300000F002F800F03AF80AA090E8000C8244BF
:100140008344AAF10107DA4501D100F02FF8AFF29C
:10015000090EBAE80F0013F0010F18BFFB1A43F0A5
:10016000010318475C1A00007C1A0000103A24BFF3
:1001700078C878C1FAD8520724BF30C830C144BF0C
:1001800004680C607047000000230024002500264E
:10019000103A28BF78C1FBD8520728BF30C148BFEA
:1001A0000B6070471FB51FBD10B510BD00F0ADF856
:1001B0001146FFF7F7FF00F0DBF800F0CBF803B4CF
:1001C000FFF7F2FF03BC00F0E4FB000009488047A2
:1001D00009480047FEE7FEE7FEE7FEE7FEE7FEE729
:1001E000FEE7FEE7FEE7FEE704480549054A064B41
:1001F00070470000B9060008310100087040002077
:10020000704600207042002070420020EFF3108002
:1002100072B6704780F310887047324A1368012B1A
:1002200004D04FF0010313602F4A10602F4A116071
:100230002F484FF0805101607047EFF3108272B683
:100240002848016891B14FF000010160264801681B
:1002500029B1EFF3098121E9F00F0068016023491A
:1002600009680968B1E8F00F81F3098882F3108802
:100270004EF0040E70471D4908601B494FF0000006
:10028000086018494FF0010008601A481A49D0F870
:10029000002041EA0201016015484FF080510160E1
:1002A00016480068006880F3088861B662B6704737
:1002B0001EF0040F0CBFEFF30880EFF3098020E974
:1002C000F00F40F804ED1EF0040F0CBF80F3088817
:1002D00080F3098800B500F091FC5DF804EB4EF066
:1002E000040E7047240000201C0000202000002085
:1002F00004ED00E020ED00E00000FFFF08ED00E06D
:1003000070477047704770477047754600F02CF88B
:10031000AE4605006946534620F00700854618B0F2
:1003200020B5FFF761FFBDE820404FF000064FF019
:1003300000074FF000084FF0000B21F00701AC461A
:10034000ACE8C009ACE8C009ACE8C009ACE8C00939
:100350008D46704710B50446AFF300802046BDE8D7
:100360001040FFF72CBF00000048704710400020ED
:1003700010B501F077FB002010BD00BFFEE770470D
:100380002DE9F0410246002500260020002300242C
:10039000002791F803C00CF00F0591F803C00CF092
:1003A000100CBCF1000F03D091F802C04CEA050517
:1003B00091F800C0BCF1000F31D0146800202BE090
:1003C0004FF0010C0CFA00F3B1F800C00CEA030680
:1003D0009E4220D183004FF00F0C0CFA03F7BC4370
:1003E00005FA03FC4CEA040491F803C0BCF1280FA1
:1003F00006D14FF0010C0CFA00FCC2F814C00AE060
:1004000091F803C0BCF1480F05D14FF0010C0CFA74
:1004100000FCC2F810C0401C0828D1D31460B1F809
:1004200000C0BCF1FF0F34DD546800202EE000F165
:10043000080C4FF0010808FA0CF3B1F800C00CEA00
:1004400003069E4221D183004FF00F0C0CFA03F7F4
:10045000BC4305FA03FC4CEA040491F803C0BCF168
:10046000280F05D100F1080C08FA0CF8C2F8148026
:1004700091F803C0BCF1480F07D100F1080C4FF010
:10048000010808FA0CF8C2F81080401C0828CED3E6
:100490005460BDE8F0814161704701617047000020
:1004A00008B50121242000F027F84FF48070ADF842
:1004B000000010208DF8030003208DF8020069462B
:1004C0000948FFF75DFF4FF480710748FFF7E5FF2C
:1004D0000420ADF8000069460448FFF751FF0421ED
:1004E0000248FFF7DAFF08BD000801400014014090
:1004F00000BFFEE77047000029B1064A9269024337
:10050000044B9A6104E0034A92698243014B9A6169
:100510007047000000100240704710B500F002F86C
:1005200010BD00000CB50020019000903348006819
:1005300040F480303149086000BF3048006800F462
:10054000003000900198401C0190009818B9019863
:10055000B0F5A06FF1D12948006800F4003010B167
:100560000120009001E0002000900098012843D174
:100570002348006840F010002149086008460068E0
:1005800020F0030008600846006840F002000860A0
:100590001A4840681949486008464068486008465B
:1005A000406840F4806048600846406820F47C1051
:1005B00048600846406840F4E81048600846006813
:1005C00040F08070086000BF0C48006800F00070C8
:1005D0000028F9D00948406820F003000749486026
:1005E0000846406840F00200486000BF0348406889
:1005F00000F00C000828F9D10CBD000000100240EA
:100600000020024010B500F031FB01F0CFF800F0FF
:100610003DFB10BD10B5002100200022214B5B687E
:1006200003F00C0121B1042906D0082928D107E0E4
:100630001D4B1E4C236027E01B4B1C4C236023E00A
:10064000184B5B6803F47010164B5B6803F4803240
:10065000022303EB904022B9154B4343134C236014
:100660000DE0104B5B6803F4003323B1104B4343A0
:100670000E4C236003E00C4B43430C4C236003E01F
:10068000094B0A4C236000BF00BF064B5B68C3F3F5
:100690000313084CE15C054B1B68CB40034C236003
:1006A00010BD00000010024000127A00000000207F
:1006B00000093D000400002010B51348006840F018
:1006C00001001149086008464068104908400E4979
:1006D0004860084600680E4908400B490860084613
:1006E000006820F4802008600846406820F4FE007E
:1006F00048604FF41F008860FFF70FFF4FF0006065
:100700000449086010BD0000001002400000FFF81E
:10071000FFFFF6FE08ED00E030B5144800684FF426
:100720007A72B0FBF2F1B1F1807F00D31DE021F0CD
:100730007F40401E4FF0E022506150170F220028EA
:1007400007DA13071D0E0A4B00F00F04241F1D5576
:1007500003E013071C0E074B1C5400BF00204FF092
:10076000E02290610720106100BF30BD0000002032
:1007700018ED00E000E400E010B540F225511D48FE
:1007800000F03EF810B31B4800F064F8C4B21A48F9
:10079000008800F40040C8B91748008800F4804081
:1007A00060B10A2C03D000201349088020E01248D1
:1007B000008840F400401049088019E00D2C06D153
:1007C0000D48008840F480400B49088010E00A483A
:1007D0000088C0F30D0009490C5407480088401CEC
:1007E0000549088008460088C72801DD00200880E8
:1007F00010BD00000038014018000020B0000020AB
:1008000070B50246002400230025002040F66A1639
:10081000B14200D100BFC1F3421501F01F03012610
:1008200006FA03F3012D02D19689334006E0022D2A
:1008300002D1168A334001E0968A33400C12012619
:1008400006FA04F41688344013B10CB1012000E01C
:10085000002070BD01468888C0F30800704700BFC3
:10086000FEE70000014609B900207047C8B220B178
:10087000C8B20E4A105C401CF7E701F47F4028B173
:100880000A48C1F30722805C0930EEE701F47F00DB
:1008900028B10648C1F30742805C1130E5E7034800
:1008A00000EB116000781930DFE700008E1A0008B5
:1008B0002DE9FC5F04468B4615461E46DDE90C9A81
:1008C000DDE90E7804F114004060006000BF1C34C4
:1008D0006560A660C4F80C90C4F810A02321D4E988
:1008E000030200F033FBD4E9033C63441A1F0F4BAF
:1008F000D4E9010100F094F92060A7766776002022
:10090000E061C4F82080C4F82480606120766065CE
:10091000A0651C3C00902346054A2146019004F145
:10092000440000F0F2FF0020BDE8FC9FA514000881
:10093000E51600082DE9F04704460E46174698468E
:10094000DDF8209084F80990607A20F00100607250
:10095000E66127620020A062C4F82480002506E03A
:1009600004F1140101EBC50000F0EFF96D1C012D3D
:10097000F6DBBDE8F08770B50546002406E005F11A
:10098000140101EBC40000F021FA641C012CF6DB19
:1009900070BD00BF704770B50446FFF737FC0546D1
:1009A000206F10B12046216F88472846FFF732FCA0
:1009B00070BD0000FFF774FD19E04FF480710C4822
:1009C000FFF769FD04210B48FFF767FD4FF4FA704C
:1009D00000F000FE4FF480710548FFF75EFD042132
:1009E0000448FFF758FD4FF4FA7000F0F3FDE4E718
:1009F000000801400014014010B5044600F066F8FC
:100A0000FFF7D8FF10BD000030B51A4C43682468CA
:100A10001919884215D04B889BB9174B1B6899420E
:100A20000FD0164B1B688B4201D1144B18604B68DA
:100A30004360104B1B68C31A0E4D4C682D682C4444
:100A4000A3600C4C836824681A19824211D0538821
:100A50007BB90A4B1B68834201D1084B1A6043687B
:100A60005360044B1B68D31A024D44682D682C4414
:100A7000A36030BD34000020380000203C0000207E
:100A80001CB514200A214FF480730022CDE9001018
:100A9000044905A000F0DDFC0446204600F0EAFD14
:100AA0001CBD0000F90900086D61696E00000000BE
:100AB00010B5044C02E020688047241D024884429F
:100AC000F9D310BDB41B0008B81B000810B5044CC6
:100AD00002E020688047241D02488442F9D310BDFB
:100AE000B81B0008BC1B000810B5FFF78FFB0446BD
:100AF00004480088401C00B2024908802046FFF7E5
:100B000089FB10BD9000002010B5FFF77FFB044665
:100B10000C480088401E00B20A4908800846B0F917
:100B2000000000280ADC002008802046FFF772FB46
:100B30000548006828B100F0C1FA02E02046FFF73E
:100B400069FB10BD900000209400002070B50546A0
:100B500005B970BD16480068854203D31548006882
:100B6000854200D3F5E7A5F10C044FF0FF311248A0
:100B700000F074FB002060804FF4F55020800F4897
:100B80000068844201D20D48046009496068096820
:100B9000611A401A0A490968081A0949086020467A
:100BA000FFF732FF044800F030FB00BFD1E7000040
:100BB0003400002038000020F00200203C0000201B
:100BC000440000200048704710040020004870478F
:100BD0001040002070B5FFF76FFDFFF71BFDFFF71A
:100BE0009BFDFFF765FFFFF7F1FF0446FFF7EAFF04
:100BF0000546214600F088FB70BD000070B5044634
:100C0000261D0648006838B120460449096888470F
:100C1000054605B970BD00BF00BFFEE728000020F3
:100C2000F0B504460D461646301D20F0070040384A
:100C30000146002203E00C4F41F82270521C102A9A
:100C4000F9D30D624FF0000CC1F824C0C1F828C0E0
:100C5000C1F82CC0C1F830C04B638C634FF0807C6E
:100C6000C1F83CC0F0BD0000EFBEADDE10B5FFF72F
:100C7000CDFA044604480078401C03490870204619
:100C8000FFF7C8FA10BD00003000002010B5FFF7D4
:100C9000BDFA044604480078401E03490870204607
:100CA000FFF7B8FA10BD00003000002070B5044610
:100CB0002068A0F11405284600F096FC002070BDC5
:100CC0002DE9F04105460C469046204600F0E8FC30
:100CD000B8F1000F03D0B8F1010F23D105E004F102
:100CE0001401284600F049F81DE02E680FE0A6F137
:100CF000140794F8350097F83510884206DA04F1A5
:100D0000140107F1140000F038F802E03668AE4232
:100D1000EDD100BFAE4204D104F11401284600F029
:100D20002CF800E000BF00BF0020BDE8F08110B546
:100D3000044604F1140000F002F8002010BD4060E9
:100D4000006070474060006070474060006070471E
:100D50000268516002680A6001604860704702687A
:100D6000516002680A600160486070470268516023
:100D700002680A600160486070474268116042681A
:100D80004A6041600860704701460868884201D1A6
:100D9000012070470020FCE701460868884201D125
:100DA000012070470020FCE7D0E900215160D0E924
:100DB00000121160406000607047D0E9002151606E
:100DC000D0E900121160406000607047D0E9002156
:100DD0005160D0E90012116040600060704700006F
:100DE0002DE9F041054615B90020BDE8F081E81C69
:100DF00020F003054E480068854201D90020F4E741
:100E00000C2D00D20C254FF0FF314A4800F026FA95
:100E10004948006849490968461A7EE04748006821
:100E200084196088002874D106F10C006168081AE2
:100E3000A8426ED306F10C006168091A05F118008A
:100E4000814230D306F10C0000EB05083B480068F6
:100E500000EB08074FF4F550388000207880606878
:100E60007860BE60C4F804800120608030487968F2
:100E700000680C30814205D0304978680968084420
:100E8000C0F808802E48016805F10C0008442C4980
:100E900008602C4800680968884219D22848006810
:100EA0002849086014E001206080244960680968CE
:100EB000611A401A224909680844214908602148FA
:100EC00000680968884203D21D4800681D4908600F
:100ED0004FF4F550208018480068844212D107E092
:100EE00015480068406815490968084412490860B7
:100EF00011480068408828B10F4800681249096805
:100F00008842EDD10B4800F080F904F10C006CE749
:100F1000FFE70A4800683044466805480068401BFF
:100F2000B0423FF67BAF034800F06FF900205CE76A
:100F300040000020F00200203C000020340000208F
:100F4000440000204800002038000020F0B50C4686
:100F50000546E6B2042A15D300F0030797B9014607
:100F600046EA062343EA034304E008C108C108C176
:100F700008C1103A102AF8D201E008C1121F042A51
:100F8000FBD20D4601E005F8016B171EA2F101022C
:100F9000F9D1F0BD2DE9F04106460F46304600F08C
:100FA00045F80546E868FFF71BFF044614B9002022
:100FB000BDE8F08100212046EA68FFF7C7FF2672EE
:100FC0000020607208223946204600F082F9FFF7BF
:100FD0001DF9804604F10C01281DFFF7B9FE4046BB
:100FE000FFF718F92046E3E770B5044600202072A9
:100FF000FFF70CF9054604F10C00FFF7D5FE284673
:10100000FFF708F92046FFF7A1FD70BD70B5044653
:1010100000202072FFF7FAF8054604F10C00FFF7F4
:10102000C3FE2846FFF7F6F870BD00000246002117
:101030000AE0074800EB01100078904203D1044811
:1010400000EB01107047491C0429F2DB0020F9E78E
:101050004C0000202DE9F04704460D46904600263E
:101060002846FFF7E3FF0746FFF73EFD7E6802E0F4
:10107000A6F10C003668381D8642F9D1FFF744FD11
:1010800045F08000207208224146204600F021F9F8
:10109000FFF7BCF8814604F10C01381DFFF758FE3C
:1010A0004846FFF7B7F8BDE8F0870146087A00F038
:1010B000800008B1012070470020FCE72DE9F041D5
:1010C000FFF7A4F807461848008838BB174800689F
:1010D000FFF7C8FB461E164850F83600A0F114046E
:1010E00014480068844218D013490E7011480568EE
:1010F00004601248007850B904F11C0105F11C008D
:10110000FFF78BF83846FFF785F8BDE8F08104F16A
:101110001C0105F11C00FFF780F800BF3846FFF7FF
:1011200079F800BFF1E70000900000208C0000205B
:1011300010030020940000209800002030000020C0
:1011400070B50446FFF762F8054614F8340F20F036
:101150000F0040F0010020706278343C0A4B03EB32
:10116000C20004F114014268116042684A604160A3
:10117000086000BF0549A06B09680843034908607F
:101180002846FFF747F870BD100300208C000020B0
:1011900070B50446FFF73AF8054604F11400D0E9AB
:1011A00000215160D0E9001211604060006000BF72
:1011B00094F83510094A02EBC1000168814201D15F
:1011C000012100E0002129B10548A16B0068884396
:1011D000034908602846FFF71DF870BD1003002082
:1011E0008C0000202DE9F04104460D4616461F46AE
:1011F0002A4602212046FFF72DFF2046FFF797FDE4
:10120000A68367720020BDE8F08170B50446002512
:10121000FEF7FCFF064604F11400FFF7B5FD28B900
:1012200004F11400FFF742FD01250EE0A08B4FF6FC
:10123000FF71884203DAA08B401CA08305E0304692
:10124000FEF7E8FF6FF0020070BD3046FEF7E2FFE8
:10125000012D01D1FFF732FF0020F5E773B50546F8
:10126000FEF7D4FF0646A88B002806DDA88B401E9B
:10127000A8833046FEF7CEFF28E0019828B9304613
:10128000FEF7C8FF6FF001007CBD00F0CBF904460B
:10129000002020636A7A214605F11400FFF710FD53
:1012A0000198002809DD01AA002104F1440000F0A2
:1012B000E7FA04F1440000F03FFB3046FEF7AAFFD6
:1012C000FFF7FCFE206B08B1206BDDE70020DBE7B9
:1012D000704770B50346A2B118460C4600BF14F81B
:1012E000016B00F8016B3EB902E0002500F8015BDC
:1012F000551E2A1EF9D102E0551E2A1EEFD100BF4D
:1013000000BF184670BD00002DE9F0410746884631
:10131000F81C20F0030528F00306182E08D9A6F1C2
:101320001800A84204D3701B18381C49086001E05B
:10133000BDE8F0811A48056004684FF4F55020803C
:10134000164800680C3060600020A060608014497E
:10135000606809680844134908604FF4F55009684B
:10136000088001200F49096848800C4800680C304B
:101370000C4909684860094800680C300949096847
:1013800088600023012208A10948FFF72BFF0448C9
:1013900000680849086000BFCAE70000400000205C
:1013A00034000020380000206865617000000000F3
:1013B000F00200203C00002010B500200B490880FE
:1013C000002405E00A4901EBC400FFF7BBFC641CE4
:1013D000202CF7DB1F200749087000200649086011
:1013E000064908600648FFF7ADFC10BD90000020DC
:1013F0001003002098000020940000208C000020A2
:101400009C00002070B508480068FFF72BFA451EC5
:10141000064850F83500A0F114040548046004F1B2
:101420001C00FEF728FF70BD8C0000201003002078
:101430009400002010B5002405E0044901EBC4002D
:10144000FFF783FC641C002CF7D010BDA400002023
:1014500070472DE9FF5F06460F4690461D46DDE9C1
:101460000EAB31460120FFF795FD8146B9F1000F23
:1014700003D1002004B0BDE8F09F2846FFF7B0FC80
:10148000044624B94846FFF7AFFD0020F2E7434683
:101490003A46314648468DE8300CFFF709FA48468F
:1014A000E8E7000070B513480468FEF7AFFE054694
:1014B0002046FFF770FA2046FFF76AFE042084F802
:1014C000340004F1440000F00CFA2046FFF7EDFD73
:1014D000012803D12046FFF799FD04E004F114012F
:1014E0000548FFF73CFCFFF7E9FD2846FEF792FEB2
:1014F00070BD0000940000209C00002001E000F07E
:1015000001F8FCE770B528E0FEF780FE054600BF55
:1015100013480168814201D0012100E0002119B97E
:101520002846FEF777FE19E00D480068A0F1140484
:1015300004F11400D0E900215160D0E900121160DB
:101540004060006000BFA06AFFF700FB2046FFF785
:101550004BFD2846FEF75EFE00BFD5E700BF70BD1D
:101560009C0000201FB520201F21C200074BCDE9A1
:101570000032CDE902100023054A06A1074800F019
:101580000FF8064800F076F81FBD0000F0010020BB
:10159000FD1400087469646C650000007801002087
:1015A0002DE9FF5F05460C4616461F46DDE910ABE8
:1015B000DDE90E89224601212846FFF74BFD3B4617
:1015C0003246214628468DE8000FFFF771F904B036
:1015D000BDE8F09F70B50446204600F0C5F805460A
:1015E000284600F025F870BD70B5044694F8340024
:1015F00000F00F00022802D04FF0FF3070BDFEF760
:1016000005FE054604F11400FFF7D7FB04F1440082
:1016100000F008FA2846FEF7FDFD2046FFF790FD92
:101620000020EBE7014800687047000094000020AC
:1016300031B5FEF7EBFD05460D480468204600F085
:101640002FF86A46002104F1440000F019F904F172
:10165000440000F071F92846FEF7DCFDFFF72EFD8F
:10166000206B801C08B900202063002038BD0000DA
:101670009400002010B504463434A078607061787E
:10168000012088406060022004F834092046FFF7FA
:10169000ABFFFFF7C7FF08B1FFF710FD002010BD3B
:1016A00070B5044694F8340000F00F00012802D011
:1016B0004FF0FF3070BDFEF7A9FD05462046FFF74D
:1016C00067FD94F8340020F00F0040F0020084F829
:1016D000340004F1440000F0A5F92846FEF79AFD15
:1016E0000020E7E770B5044625466FF00100286347
:1016F00005F11400FFF761FB2846FFF721FDFFF716
:10170000DDFC70BD70B5FEF781FD05461448046828
:1017100094F8340000F00F0001281CD1D4E9051022
:10172000814218D004F11400FFF747FB94F83520EC
:101730000C4B03EBC20004F11401426811604268D3
:101740004A604160086000BF2846FEF763FDFFF76E
:10175000B5FC002070BD2846FEF75CFD0020F9E7CF
:1017600094000020100300200146002902DA4FF007
:10177000FF3014E04FF47A7291FBF2F24FF47A7377
:1017800002FB03F01A4691FBF2F302FB13124FF433
:101790007A735A4302F2E73292FBF3F21044704735
:1017A00001480068704700002C00002010B50A486E
:1017B0000068401C08490860FFF734FF0446206CAD
:1017C000401E2064206C18B9E06B2064FFF79AFF7C
:1017D00000F004F810BD00002C0000207CB5684625
:1017E000FFF7B3FAFFF7DCFF0546FEF70FFD0646ED
:1017F0003AE022480068A0F11404A06A281A6FF0A9
:10180000004188422ED22046FFF7B5F8607A00F0FA
:10181000020018B9607A20F00100607204F114012E
:101820006846FFF7A3FAD4E907108847FFF7B8FF27
:1018300005466846FFF7B0FA00B115E004F1140060
:10184000FFF7C4FA607A00F0020060B1607A00F03D
:10185000010040B1607A20F001006072204600F083
:101860006BF800E005E000BF0448FFF795FA002898
:10187000BFD000BF3046FEF7CDFC7CBDA4000020E9
:101880002DE9F04104460E461546FEF7BFFC07461B
:10189000052E1ED2DFE806F00603090E1300606A6B
:1018A000286017E02868606214E0607A20F0020087
:1018B00060720FE0607A40F0020060720AE0607AC5
:1018C00000F0010010B10120286001E00020286034
:1018D00000E000BF00BF3846FEF79CFC0020BDE8DA
:1018E000F08170B50446FEF791FC05462046FFF7EF
:1018F00042F8607A20F0010060722846FEF78AFC08
:101900002046FFF783FB002070BD2DE9F843074612
:101910000C4615461E46DDE9088922460A2138464E
:10192000FFF798FB4346324629463846CDF80090EB
:10193000FFF700F8BDE8F8832DE9F8430546FEF708
:1019400065FC80462846FFF716F8687A20F001000B
:101950006872FFF725FF696A0844A8622F4F009755
:1019600000242AE019E05DF824201168142202EB1B
:10197000C402881A826AAB6AD21A00D108E0826A6D
:10198000AB6AD21A6FF000439A4200D20CE000BF5B
:101990005DF8240000684DF824005DF8240007EB92
:1019A000C40149688842DED100BF2CB15DF8240033
:1019B0000830611C4DF82100641C002CD2D018485E
:1019C0000068401C164908600846066805F11401C5
:1019D0000098FFF7CBF9022412E006F0030060B98B
:1019E000C4F1010305F1140202EBC301C4F10102C9
:1019F0005DF82200FFF7BAF900E003E0B608641CC6
:101A0000012CEAD900BF687A40F0010068724046B4
:101A1000FEF700FC0020BDE8F8830000A4000020D1
:101A2000AC00002070B50446607A00F0010010B9E7
:101A30004FF0FF3070BDFEF7E9FB05462046FEF78C
:101A40009AFF607A20F0010060722846FEF7E2FB00
:101A50000020EFE70020704700207047002070470B
:101A60000020704710B5FEF7D1FBFFF7B3F8FFF782
:101A70002FFCFFF7DFFCFFF79FFCFFF701F8FFF7F4
:101A8000E7FCFFF76FFDFFF7BDFC002010BD000075
:101A90000100020001000300010002000100040037
:101AA0000100020001000300010002000100050026
:101AB0000100020001000300010002000100040017
:101AC0000100020001000300010002000100060005
:101AD00001000200010003000100020001000400F7
:101AE00001000200010003000100020001000500E6
:101AF00001000200010003000100020001000400D7
:101B000001000200010003000100020001000700C3
:101B100001000200010003000100020001000400B6
:101B200001000200010003000100020001000500A5
:101B30000100020001000300010002000100040096
:101B40000100020001000300010002000100060084
:101B50000100020001000300010002000100040076
:101B60000100020001000300010002000100050065
:101B70000100020001000300010002000100040056
:101B800001000200010003000100020001003031E9
:101B90003233343536373839616263646566003014
:101BA00031323334353637383941424344454600C3
:101BB000611A0008591A0008551A00085D1A000831
:101BC000E01B000800000020B00000006C010008CD
:101BD000901C0008B0000020C045000088010008EB
:101BE00000A24A04000000000000000001020304FB
:101BF00006070809000000000000000000000000C7
:101C000000000000000000000000000000000000D4
:101C100000000000000000000000000000000000C4
:101C200000000000000000000000000001000000B3
:101C3000500000205000002078000000020000004A
:101C4000600000206000002020000000050000006F
:101C50007000002070000020300000000A0000002A
:101C600080000020800000202C0000000000000008
:101C70000000000000000000000000000000000064
:101C80000000000000000000000000000000000054
:04000005080001CD21
:00000001FF
