:020000040800F2
:100000005844002045010008050400080D020008BE
:10001000010400088B020008C50900080000000068
:100020000000000000000000000000006D05000856
:100030008F02000800000000970100085906000820
:100040005F0100085F0100085F0100085F01000810
:100050005F0100085F0100085F0100085F01000800
:100060005F0100085F0100085F0100085F010008F0
:100070005F0100085F0100085F0100085F010008E0
:100080005F0100085F0100085F0100085F010008D0
:100090005F0100085F0100085F0100085F010008C0
:1000A0005F0100085F0100085F0100085F010008B0
:1000B0005F0100085F0100085F0100085F010008A0
:1000C0005F0100085F0100085F0100085F01000890
:1000D0005F010008CD0700085F0100085F0100080C
:1000E0005F0100085F0100085F0100085F01000870
:1000F0005F0100085F0100085F0100085F01000860
:100100005F0100085F0100085F0100085F0100084F
:100110005F0100085F0100085F0100085F0100083F
:100120005F0100085F0100085F0100085F0100082F
:10013000DFF80CD000F092F8004800478102000878
:10014000584400200648804706480047FEE7FEE77F
:10015000FEE7FEE7FEE7FEE7FEE7FEE7FEE7FEE777
:100160000D07000831010008EFF3108072B67047E8
:1001700080F310887047324A1368012B04D04FF087
:10018000010313602F4A10602F4A11602F484FF06F
:10019000805101607047EFF3108272B62848016801
:1001A00091B14FF0000101602648016829B1EFF3D9
:1001B000098121E9F00F0068016023490968096895
:1001C000B1E8F00F81F3098882F310884EF0040E35
:1001D00070471D4908601B494FF00000086018492E
:1001E0004FF0010008601A481A49D0F8002041EA8F
:1001F0000201016015484FF0805101601648006807
:10020000006880F3088861B662B670471EF0040F7C
:100210000CBFEFF30880EFF3098020E9F00F40F8FE
:1002200004ED1EF0040F0CBF80F3088880F30988EA
:1002300000B500F0C9FE5DF804EB4EF0040E704707
:1002400030000020280000202C00002004ED00E0F9
:1002500020ED00E00000FFFF08ED00E0064C074D38
:1002600006E0E06840F0010394E807009847103486
:10027000AC42F6D3FFF760FF1826000838260008C6
:1002800010B502F0FFF8002010BD00BFFEE7704778
:100290002DE9F0410246002500260020002300241D
:1002A000002791F803C00CF00F0591F803C00CF083
:1002B000100CBCF1000F03D091F802C04CEA050508
:1002C00091F800C0BCF1000F31D0146800202BE081
:1002D0004FF0010C0CFA00F3B1F800C00CEA030671
:1002E0009E4220D183004FF00F0C0CFA03F7BC4361
:1002F00005FA03FC4CEA040491F803C0BCF1280F92
:1003000006D14FF0010C0CFA00FCC2F814C00AE050
:1003100091F803C0BCF1480F05D14FF0010C0CFA65
:1003200000FCC2F810C0401C0828D1D31460B1F8FA
:1003300000C0BCF1FF0F34DD546800202EE000F156
:10034000080C4FF0010808FA0CF3B1F800C00CEAF1
:1003500003069E4221D183004FF00F0C0CFA03F7E5
:10036000BC4305FA03FC4CEA040491F803C0BCF159
:10037000280F05D100F1080C08FA0CF8C2F8148017
:1003800091F803C0BCF1480F07D100F1080C4FF001
:10039000010808FA0CF8C2F81080401C0828CED3D7
:1003A0005460BDE8F0814161704701617047000011
:1003B00008B50121242000F05FF84FF48070ADF8FB
:1003C000000010208DF8030003208DF8020069461C
:1003D0000948FFF75DFF4FF480710748FFF7E5FF1D
:1003E0000420ADF8000069460448FFF751FF0421DE
:1003F0000248FFF7DAFF08BD000801400014014081
:1004000000BFFEE77047000070B5002100230F22F7
:10041000C47804B3154C246804F4E064C4F5E064C3
:10042000210AC1F10403CA40447804FA03F1847834
:100430001440214309010E4C0678A155047804F0BC
:100440001F050124AC4005786D11AD0005F1E025D4
:10045000C5F8004109E0047804F01F050124AC4010
:10046000044D0678761145F8264070BD0CED00E08D
:1004700000E400E080E100E029B1064A926902430D
:10048000044B9A6104E0034A92698243014B9A61EA
:10049000704700000010024030B500210022002407
:1004A00000232D4D6D6805F00C0121B1042905D004
:1004B000082923D105E0294D056022E0274D05607C
:1004C0001FE0254D6D6805F47012234D6D6805F42D
:1004D0008034022505EB92421CB9214D554305603D
:1004E0000BE01D4D6D6805F400351DB11C4D5543E5
:1004F000056002E0194D5543056002E0174D0560A7
:1005000000BF00BF144D6D6805F0F0010909154DDD
:100510006B5C0568DD4045600F4D6D6805F4E0617A
:10052000090A104D6B5C4568DD4085600A4D6D68B9
:1005300005F46051C90A0B4D6B5C4568DD40C56030
:10054000054D6D6805F44041890B074D6B5CC5682E
:10055000B5FBF3F5056130BD0010024000127A00D2
:1005600000093D001400002024000020704710B551
:1005700000F002F810BD00000CB5002001900090C2
:100580003348006840F480303149086000BF30488B
:10059000006800F4003000900198401C0190009821
:1005A00018B90198B0F5A06FF1D12948006800F49E
:1005B000003010B10120009001E000200090009870
:1005C000012843D12348006840F010002149086009
:1005D0000846006820F0030008600846006840F004
:1005E000020008601A484068194948600846406897
:1005F00048600846406840F48060486008464068AB
:1006000020F47C1048600846406840F4E8104860D8
:100610000846006840F08070086000BF0C48006821
:1006200000F000700028F9D00948406820F003006D
:10063000074948600846406840F00200486000BF33
:100640000348406800F00C000828F9D10CBD0000F8
:10065000001002400020024010B500F0DBFD01F068
:1006600015FC00F0E7FD10BD10B5002100200022B0
:10067000214B5B6803F00C0121B1042906D0082945
:1006800028D107E01D4B1E4C236027E01B4B1C4C60
:10069000236023E0184B5B6803F47010164B5B6813
:1006A00003F48032022303EB904022B9154B4343FD
:1006B000134C23600DE0104B5B6803F4003323B14F
:1006C000104B43430E4C236003E00C4B43430C4C54
:1006D000236003E0094B0A4C236000BF00BF064BB8
:1006E0005B68C3F30313084CE15C054B1B68CB400C
:1006F000034C236010BD00000010024000127A007D
:100700000000002000093D000400002010B513483F
:10071000006840F00100114908600846406810492F
:1007200008400E494860084600680E4908400B49D9
:1007300008600846006820F4802008600846406889
:1007400020F4FE0048604FF41F008860FFF70FFFA1
:100750004FF000600449086010BD00000010024026
:100760000000FFF8FFFFF6FE08ED00E030B514488A
:1007700000684FF47A72B0FBF2F1B1F1807F00D3E0
:100780001DE021F07F40401E4FF0E02250615017E5
:100790000F22002807DA13071D0E0A4B00F00F0482
:1007A000241F1D5503E013071C0E074B1C5400BFEC
:1007B00000204FF0E02290610720106100BF30BDA3
:1007C0000000002018ED00E000E400E0704721B1D7
:1007D000828942F40052828104E082894DF6FF73DF
:1007E0001A4082817047F0B5034600240026002598
:1007F000002040F66A17B94200D100BF1846C1F385
:10080000421401F01F06012707FA06F5012C01D159
:100810000C3004E0022C01D1103000E014301AB189
:1008200007682F43076002E00768AF430760F0BD29
:100830002DE9F04786B005460E460024A24600BFCB
:10084000A1460027B08900B100BF2F462C8A4CF684
:10085000FF700440F08804432C82AC894EF6F310FC
:100860000440B08831890843718908430443AC814E
:10087000AC8A4FF6FF400440B0890443AC8201A823
:10088000FFF70AFE1F48874202D1DDF810A001E001
:10089000DDF80CA0A88900F4004040B10AEBCA00C2
:1008A00000EB0A1031684900B0FBF1F807E00AEBF1
:1008B000CA0000EB0A1031688900B0FBF1F864202F
:1008C000B8FBF0F004012009642101FB1089A8891C
:1008D00000F4004040B1322000EBC900B0FBF1F061
:1008E00000F00700044308E0322000EB0910642107
:1008F000B0FBF1F000F00F0004432C8106B0BDE81E
:10090000F08700000038014000BF0549098801F068
:1009100040010029F9D00249091D088070470000F4
:100920000038014010B586B00446012144F20400AD
:10093000FFF7A2FD4FF40070ADF8140003208DF80E
:10094000160018208DF8170005A91C48FFF7A0FC19
:100950004FF48060ADF8140004208DF8170005A94D
:100960001648FFF795FC25208DF8000003208DF830
:1009700001008DF8020001208DF803006846FFF7A2
:1009800043FD01940020ADF80800ADF80A00ADF871
:100990000C00ADF810000C20ADF80E0001A90848BD
:1009A000FFF746FF012240F225510548FFF71BFFE4
:1009B00001210348FFF70BFF06B010BD00080140FE
:1009C0000038014000BFFEE7014609B9002070472A
:1009D000C8B220B1C8B20E4A105C401CF7E701F45F
:1009E0007F4028B10A48C1F30722805C0930EEE756
:1009F00001F47F0028B10648C1F30742805C113042
:100A0000E5E7034800EB116000781930DFE70000EC
:100A1000E224000802E008C8121F08C1002AFAD127
:100A200070477047002001E001C1121F002AFBD16E
:100A3000704700002DE9FC5F04468B4615461E46B4
:100A4000DDE90C9ADDE90E7804F1140040600060E5
:100A500000BF1C346560A660C4F80C90C4F810A0F8
:100A60002321D4E9030200F05DFDD4E9033C634493
:100A70001A1F0F4BD4E9010100F0A6FB2060A776F6
:100A800067760020E061C4F82080C4F824806061AB
:100A900020766065A0651C3C00902346054A2146EF
:100AA000019004F1440001F0A0FA0020BDE8FC9F91
:100AB000851B0008C51D00082DE9F04704460E46B9
:100AC00017469846DDF8209084F80990607A20F067
:100AD00001006072E66127620020A062C4F82480F1
:100AE000002506E004F1140101EBC50000F01AFC3A
:100AF0006D1C012DF6DBBDE8F08770B505460024BE
:100B000006E005F1140101EBC40000F04CFC641C8C
:100B1000012CF6DB70BD70B50446FFF725FB0546DA
:100B2000206F10B12046216F88472846FFF720FB31
:100B300070BD0000FFF73CFC1CE04FF480710E48D4
:100B4000FFF731FC04210D48FFF72FFC4FF4FA703A
:100B500001F0B0F84FF480710748FFF726FC04213C
:100B60000648FFF720FC4FF4FA7001F0A3F804A048
:100B700000F0BAFBE1E7000000080140001401406A
:100B800068656C6C6F20776F726C640A00000000FF
:100B900010B5044600F032F9FFF7CCFF10BD00009D
:100BA00030B51A4C436824681919884215D04B880F
:100BB0009BB9174B1B6899420FD0164B1B688B4291
:100BC00001D1144B18604B684360104B1B68C31A6B
:100BD0000E4D4C682D682C44A3600C4C836824682F
:100BE0001A19824211D053887BB90A4B1B68834281
:100BF00001D1084B1A6043685360044B1B68D31A39
:100C0000024D44682D682C44A36030BD4000002094
:100C100044000020480000202DE9F04F86B00D462A
:100C20009C46DDE9106401960F9B04F04008B8F182
:100C3000000F02D0DFF8708101E0DFF87081CDF89D
:100C4000008004F01008B8F1000F01D024F0010476
:100C500004F00108B8F1000F02D04FF0300801E0B5
:100C60004FF02008C246002704F00208B8F1000F38
:100C700011D0002A02DA2D2752420CE004F00408B9
:100C8000B8F1000F01D02B2705E004F00808B8F1F7
:100C9000000F00D02027002142B94FF0300B8846CA
:100CA000491C0DF1080909F808B01DE01AE0E146F9
:100CB000B9F10A0F08D14FF00A0BB2FBFBFE0BFB98
:100CC0001E28B2FBFBF202E002F00F08120900BF7F
:100CD000DDF8009019F808B08846491C0DF10809A4
:100CE00009F808B0002AE2D1B14200DD0E469B1B94
:100CF00004F01108B8F1000F10D117B1002B00DD7E
:100D00005B1E06E0A84203D24FF0200880F8008066
:100D1000401CB3F10008A3F10103F3DC27B1A842A2
:100D200000D207705B1E401C04F01008B8F1000FE1
:100D30000AD104E0A84201D280F800A0401CB3F11F
:100D40000008A3F10103F5DC06E0A84203D24FF04E
:100D5000300880F80080401CB046761E8845F4DCE0
:100D600008E0A84205D20DF1080818F8018080F8C3
:100D70000080401CB1F10008A1F1010104DDDDF8A3
:100D80000480B8F1000FECD106E0A84203D24FF086
:100D9000200880F80080401CB3F10008A3F1010393
:100DA000F3DC06B0BDE8F08FF3250008E22500086B
:100DB0001CB514200A214FF480730022CDE90010E5
:100DC000044905A000F0B5FE0446204600F0C2FF2D
:100DD0001CBD0000910B00086D61696E00000000F1
:100DE00010B5044C02E020688047241D024884426C
:100DF000F9D310BD082600081026000810B5044CD1
:100E000002E020688047241D02488442F9D310BDC7
:100E1000102600081426000810B5FFF7A5F90446AF
:100E200004480088401C00B2024908802046FFF7B1
:100E30009FF910BD9C00002010B5FFF795F90446FE
:100E40000C480088401E00B20A4908800846B0F9E4
:100E5000000000280ADC002008802046FFF788F9FF
:100E60000548006828B100F015FC02E02046FFF7B5
:100E70007FF910BD9C000020A000002070B5054641
:100E800005B970BD1D480068854203D31C48006841
:100E9000854200D3F5E7A5F10C044FF0FF31194866
:100EA00000F0C8FC608818B12088B0F5F55F08D064
:100EB00015A000F019FA23886288214619A000F0D5
:100EC00013FA002060804FF4F5502080214800681C
:100ED000844201D21F480460084960680968611AA9
:100EE000401A1D490968081A1B4908602046FFF787
:100EF00057FE044800F075FC00BFC2E74000002028
:100F00004400002034030020746F20667265652061
:100F10006120626164206461746120626C6F636B44
:100F20003A0A00006D656D3A203078253038782C0B
:100F3000207573656420666C61673A2025642C20F7
:100F40006D6167696320636F64653A20307825308E
:100F500034780A0048000020500000200048704704
:100F600054040020004870475440002070B5FFF73B
:100F7000CDFBFFF779FBFFF7F9FBFFF731FFFFF739
:100F8000F1FF0446FFF7EAFF0546214600F008FDA1
:100F900070BD2DE9F0410546002400260D272846A6
:100FA00000F0DAFC064600BF09E0285D0A2802D1FD
:100FB0003846FFF7A9FC285DFFF7A6FC641CB44285
:100FC000F3D3BDE8F081000070B505462C1D2E4816
:100FD000006838B128462C4909688847064606B992
:100FE00070BD00BF29A0E16B00F07EF92BA0216A43
:100FF00000F07AF92DA0616A00F076F92FA0A16ABD
:1010000000F072F931A0E16A00F06EF933A02168B6
:1010100000F06AF935A0616800F066F937A0A168B0
:1010200000F062F939A0E16800F05EF93BA02169A7
:1010300000F05AF93DA0616900F056F93FA0A1699E
:1010400000F052F941A0E16900F04EF943A0216B94
:1010500000F04AF945A0616B00F046F947A0A16B8A
:1010600000F042F9287800F0040038B100F04AFEA0
:101070000646314645A000F037F902E04BA000F0EB
:1010800033F900BFFEE70000340000207073723AAD
:10109000203078253038780A000000007230303A6D
:1010A000203078253038780A000000007230313A5C
:1010B000203078253038780A000000007230323A4B
:1010C000203078253038780A000000007230333A3A
:1010D000203078253038780A000000007230343A29
:1010E000203078253038780A000000007230353A18
:1010F000203078253038780A000000007230363A07
:10110000203078253038780A000000007230373AF5
:10111000203078253038780A000000007230383AE4
:10112000203078253038780A000000007230393AD3
:10113000203078253038780A000000007231303ACB
:10114000203078253038780A000000007231313ABA
:10115000203078253038780A000000007231323AA9
:10116000203078253038780A00000000206C723A70
:10117000203078253038780A000000002070633A6B
:10118000203078253038780A0000000068617264E9
:10119000206661756C74206F6E207468726561647E
:1011A0003A2025730D0A0D0A000000006861726480
:1011B000206661756C74206F6E2068616E646C656A
:1011C000720D0A0D0A000000F0B504460D461646E1
:1011D000301D20F0070040380146002203E00C4F8C
:1011E00041F82270521C102AF9D30D624FF0000C06
:1011F000C1F824C0C1F828C0C1F82CC0C1F830C063
:101200004B638C634FF0807CC1F83CC0F0BD0000A4
:10121000EFBEADDE10B5FEF7A7FF04460448007828
:10122000401C034908702046FEF7A2FF10BD0000D5
:101230003C00002010B5FEF797FF044604480078F4
:10124000401E034908702046FEF792FF10BD0000C3
:101250003C00002070B504462068A0F11405284623
:1012600000F032FD002070BD2DE9F04105460C462E
:101270009046204600F084FDB8F1000F03D0B8F18D
:10128000010F23D105E004F11401284600F062F8B3
:101290001DE02E680FE0A6F1140794F8350097F8CA
:1012A0003510884206DA04F1140107F1140000F049
:1012B00051F802E03668AE42EDD100BFAE4204D133
:1012C00004F11401284600F045F800E000BF00BF1B
:1012D0000020BDE8F08110B5044604F1140000F0D0
:1012E0001BF8002010BD00000FB438B505A8009011
:1012F000FF210848009B049A00F01CFF0446FF2CC5
:1013000000D9FF240348FFF744FE0020009038BCBA
:101310005DF814FB340200204060006070474060BC
:10132000006070474060006070470268516002686A
:101330000A600160486070470268516002680A6094
:101340000160486070470268516002680A6001608D
:10135000486070474268116042684A6041600860B6
:10136000704701460868884201D10120704700207B
:10137000FCE701460868884201D10120704700203F
:10138000FCE7D0E900215160D0E900121160406013
:1013900000607047D0E900215160D0E9001211606F
:1013A000406000607047D0E900215160D0E9001230
:1013B00011604060006070472DE9F041054615B9A5
:1013C0000020BDE8F081E81C20F003054E480068CD
:1013D000854201D90020F4E70C2D00D20C254FF0F6
:1013E000FF314A4800F026FA49480068494909682F
:1013F000461A7EE04748006884196088002874D146
:1014000006F10C006168081AA8426ED306F10C00C0
:101410006168091A05F11800814230D306F10C0009
:1014200000EB05083B48006800EB08074FF4F55057
:1014300038800020788060687860BE60C4F80480DE
:10144000012060803048796800680C30814205D006
:101450003049786809680844C0F808802E48016857
:1014600005F10C0008442C4908602C480068096804
:10147000884219D2284800682849086014E00120F1
:101480006080244960680968611A401A2249096825
:10149000084421490860214800680968884203D24D
:1014A0001D4800681D4908604FF4F5502080184819
:1014B0000068844212D107E0154800684068154969
:1014C000096808441249086011480068408828B13A
:1014D0000F480068124909688842EDD10B4800F0B6
:1014E00080F904F10C006CE7FFE70A48006830441B
:1014F000466805480068401BB0423FF67BAF034892
:1015000000F06FF900205CE74C000020340300205D
:10151000480000204000002050000020540000201F
:1015200044000020F0B50C460546E6B2042A15D367
:1015300000F0030797B9014646EA062343EA03434E
:1015400004E008C108C108C108C1103A102AF8D245
:1015500001E008C1121F042AFBD20D4601E005F884
:10156000016B171EA2F10102F9D1F0BD2DE9F04186
:1015700006460F46304600F045F80546E868FFF796
:101580001BFF044614B90020BDE8F081002120466D
:10159000EA68FFF7C7FF267200206072082239460A
:1015A000204600F0E2F9FEF7DFFD804604F10C0171
:1015B000281DFFF7BAFE4046FEF7DAFD2046E3E7B6
:1015C00070B5044600202072FEF7CEFD054604F1FA
:1015D0000C00FFF7D6FE2846FEF7CAFD2046FFF7AF
:1015E0004DFC70BD70B5044600202072FEF7BCFDB6
:1015F000054604F10C00FFF7C4FE2846FEF7B8FDCF
:1016000070BD0000024600210AE0074800EB01100F
:101610000078904203D1044800EB01107047491C48
:101620000429F2DB0020F9E7580000202DE9F047FB
:1016300004460D46904600262846FFF7E3FF07467E
:10164000FFF7EAFB7E6802E0A6F10C003668381D61
:101650008642F9D1FFF7F0FB45F0800020720822A6
:101660004146204600F081F9FEF77EFD814604F1F7
:101670000C01381DFFF759FE4846FEF779FDBDE81D
:10168000F0870146087A00F0800008B10120704719
:101690000020FCE72DE9F041FEF766FD07461848FB
:1016A000008838BB17480068FFF78EF9461E1648B9
:1016B00050F83600A0F1140414480068844218D091
:1016C00013490E701148056804601248007850B93B
:1016D00004F11C0105F11C00FEF74DFD3846FEF734
:1016E00047FDBDE8F08104F11C0105F11C00FEF787
:1016F00042FD00BF3846FEF73BFD00BFF1E70000AA
:101700009C0000209800002054030020A00000202E
:10171000A40000203C00002070B50446FEF724FD24
:10172000054614F8340F20F00F0040F0010020703F
:101730006278343C0A4B03EBC20004F114014268A6
:10174000116042684A604160086000BF0549A06BB3
:1017500009680843034908602846FEF709FD70BD83
:10176000540300209800002070B50446FEF7FCFCEE
:10177000054604F11400D0E900215160D0E90012BF
:1017800011604060006000BF94F83510094A02EB18
:10179000C1000168814201D1012100E0002129B18D
:1017A0000548A16B00688843034908602846FEF796
:1017B000DFFC70BD54030020980000202DE9F041AB
:1017C00004460D4616461F462A4602212046FFF7CC
:1017D0002DFF2046FFF77FFDA68367720020BDE83E
:1017E000F08170B504460025FEF7BEFC064604F104
:1017F0001400FFF7B6FD28B904F11400FFF72AFD25
:1018000001250EE0A08B4FF6FF71884203DAA08B12
:10181000401CA08305E03046FEF7AAFC6FF00200F2
:1018200070BD3046FEF7A4FC012D01D1FFF732FF59
:101830000020F5E773B50546FEF796FC0646A88B33
:10184000002806DDA88B401EA8833046FEF790FCDA
:1018500028E0019828B93046FEF78AFC6FF00100B5
:101860007CBD00F04FFA0446002020636A7A2146CE
:1018700005F11400FFF7F8FC0198002809DD01AA22
:10188000002104F1440000F06BFB04F1440000F07F
:10189000C3FB3046FEF76CFCFFF7FCFE206B08B183
:1018A000206BDDE70020DBE708B509A0FFF71CFD92
:1018B0000AA0FFF719FD12A00523012203210090C1
:1018C00012A0FFF711FD19A0FFF70EFD08BD0000E3
:1018D0000A205C207C202F0A000000002D2052549A
:1018E000202D2020202020546872656164204F70D4
:1018F00065726174696E672053797374656D0A004F
:10190000446563203238203230323100202F207C71
:10191000205C202020202025642E25642E25642094
:101920006275696C642025730A0000002032303033
:1019300036202D203230323020436F707972696743
:1019400068742062792072742D74687265616420F5
:101950007465616D0A00000001460A4600E0521CF1
:1019600010780028FBD1501A704770B50346A2B119
:1019700018460C4600BF14F8016B00F8016B3EB925
:1019800002E0002500F8015B551E2A1EF9D102E095
:10199000551E2A1EEFD100BF00BF184670BD0000C3
:1019A0002DE9F04105460E46E81C20F0030726F01D
:1019B0000308B8F1180F09D9A8F11800B84205D3E7
:1019C000A8EB070018381E49086006E03246294691
:1019D0001CA0FFF789FCBDE8F08129480760046876
:1019E0004FF4F5502080164800680C3060600020ED
:1019F000A060608022496068096808442149086045
:101A00004FF4F5500968088001201E490968488094
:101A10000B4800680C301B4909684860084800689A
:101A20000C301849096888600023012216A1184863
:101A3000FFF7C4FE124800681649086000BFCAE7F5
:101A40004C0000206D656D20696E69742C206572F4
:101A5000726F7220626567696E206164647265737B
:101A60007320307825782C20616E6420656E6420A8
:101A70006164647265737320307825780A00000011
:101A800040000020440000206865617000000000F4
:101A9000340300204800002010B500200B490880C6
:101AA000002405E00A4901EBC400FFF738FC641C80
:101AB000202CF7DB1F20074908700020064908602A
:101AC000064908600648FFF72AFC10BD9C0000206C
:101AD00054030020A4000020A00000209800002053
:101AE000A800002070B508480068FEF76DFF451E8D
:101AF000064850F83500A0F114040548046004F1CC
:101B00001C00FEF766FB70BD980000205403002007
:101B1000A000002010B5002405E0044901EBC4003A
:101B2000FFF700FC641C002CF7D010BDB0000020B3
:101B300070472DE9FF5F06460F4690461D46DDE9DA
:101B40000EAB31460120FFF711FD8146B9F1000FC0
:101B500003D1002004B0BDE8F09F2846FFF72CFC1D
:101B6000044624B94846FFF72BFD0020F2E7434620
:101B70003A46314648468DE8300CFEF75BFF484652
:101B8000E8E7000070B513480468FEF7EDFA054673
:101B90002046FEF7C0FF2046FFF7E6FD042084F84C
:101BA000340004F1440000F00CFA2046FFF769FD10
:101BB000012803D12046FFF715FD04E004F11401CC
:101BC0000548FFF7B9FBFFF765FD2846FEF7D0FA99
:101BD00070BD0000A0000020A800002001E000F07F
:101BE00001F8FCE770B528E0FEF7BEFA054600BF35
:101BF00013480168814201D0012100E0002119B998
:101C00002846FEF7B5FA19E00D480068A0F1140463
:101C100004F11400D0E900215160D0E900121160F4
:101C20004060006000BFA06AFFF728F92046FFF778
:101C3000C7FC2846FEF79CFA00BFD5E700BF70BD81
:101C4000A80000201FB520201F21C200074BCDE9AE
:101C50000032CDE902100023054A06A1074800F032
:101C60000FF8064800F076F81FBD00003401002090
:101C7000DD1B00087469646C65000000BC00002076
:101C80002DE9FF5F05460C4616461F46DDE910AB01
:101C9000DDE90E89224601212846FFF7C7FC3B46B5
:101CA0003246214628468DE8000FFEF7C3FE04B0F9
:101CB000BDE8F09F70B50446204600F0C5F8054623
:101CC000284600F025F870BD70B5044694F834003D
:101CD00000F00F00022802D04FF0FF3070BDFEF779
:101CE00043FA054604F11400FFF754FB04F14400E5
:101CF00000F008FA2846FEF73BFA2046FFF70CFDF5
:101D00000020EBE70148006870470000A0000020B9
:101D100031B5FEF729FA05460D480468204600F063
:101D20002FF86A46002104F1440000F019F904F18B
:101D3000440000F071F92846FEF71AFAFFF7AAFCF2
:101D4000206B801C08B900202063002038BD0000F3
:101D5000A000002010B504463434A078607061788B
:101D6000012088406060022004F834092046FFF713
:101D7000ABFFFFF7C7FF08B1FFF78CFC002010BDD9
:101D800070B5044694F8340000F00F00012802D02A
:101D90004FF0FF3070BDFEF7E7F905462046FFF72C
:101DA000E3FC94F8340020F00F0040F0020084F8C7
:101DB000340004F1440000F0A5F92846FEF7D8F9F4
:101DC0000020E7E770B5044625466FF00100286360
:101DD00005F11400FFF7DEFA2846FFF79DFCFFF738
:101DE00059FC70BD70B5FEF7BFF90546144804688C
:101DF00094F8340000F00F0001281CD1D4E905103C
:101E0000814218D004F11400FFF7C4FA94F8352089
:101E10000C4B03EBC20004F11401426811604268EC
:101E20004A604160086000BF2846FEF7A1F9FFF74D
:101E300031FC002070BD2846FEF79AF90020F9E732
:101E4000A0000020540300200146002902DA4FF0D0
:101E5000FF3014E04FF47A7291FBF2F24FF47A7390
:101E600002FB03F01A4691FBF2F302FB13124FF44C
:101E70007A735A4302F2E73292FBF3F2104470474E
:101E800001480068704700003800002010B50A487B
:101E90000068401C08490860FFF734FF0446206CC6
:101EA000401E2064206C18B9E06B2064FFF79AFF95
:101EB00000F004F810BD0000380000207CB5684632
:101EC000FFF730FAFFF7DCFF0546FEF74DF906464F
:101ED0003AE022480068A0F11404A06A281A6FF0C2
:101EE000004188422ED22046FEF707FE607A00F0BD
:101EF000020018B9607A20F00100607204F1140148
:101F00006846FFF720FAD4E907108847FFF7B8FFC3
:101F100005466846FFF72DFA00B115E004F11400FC
:101F2000FFF741FA607A00F0020060B1607A00F0D9
:101F3000010040B1607A20F001006072204600F09C
:101F40006BF800E005E000BF0448FFF712FA002834
:101F5000BFD000BF3046FEF70BF97CBDB0000020BB
:101F60002DE9F04104460E461546FEF7FDF80746FA
:101F7000052E1ED2DFE806F00603090E1300606A84
:101F8000286017E02868606214E0607A20F00200A0
:101F900060720FE0607A40F0020060720AE0607ADE
:101FA00000F0010010B10120286001E0002028604D
:101FB00000E000BF00BF3846FEF7DAF80020BDE8B9
:101FC000F08170B50446FEF7CFF805462046FEF7CF
:101FD00094FD607A20F0010060722846FEF7C8F890
:101FE0002046FFF7FFFA002070BD2DE9F8430746B1
:101FF0000C4615461E46DDE9088922460A21384668
:10200000FFF714FB4346324629463846CDF8009088
:10201000FEF752FDBDE8F8832DE9F8430546FEF7CB
:10202000A3F880462846FEF768FD687A20F0010094
:102030006872FFF725FF696A0844A8622F4F00976E
:1020400000242AE019E05DF824201168142202EB34
:10205000C402881A826AAB6AD21A00D108E0826A86
:10206000AB6AD21A6FF000439A4200D20CE000BF74
:102070005DF8240000684DF824005DF8240007EBAB
:10208000C40149688842DED100BF2CB15DF824004C
:102090000830611C4DF82100641C002CD2D0184877
:1020A0000068401C164908600846066805F11401DE
:1020B0000098FFF748F9022412E006F0030060B927
:1020C000C4F1010305F1140202EBC301C4F10102E2
:1020D0005DF82200FFF737F900E003E0B608641C62
:1020E000012CEAD900BF687A40F0010068724046CE
:1020F000FEF73EF80020BDE8F8830000B0000020A5
:10210000B800002070B50446607A00F0010010B9F4
:102110004FF0FF3070BDFEF727F805462046FEF76A
:10212000ECFC607A20F0010060722846FEF720F88F
:102130000020EFE72DE9FF4F89B081464C460A9811
:1021400009EB00064E4504D24FF0FF36A6EB09001E
:102150000A9077E10B980078252806D0B44202D285
:102160000B9800782070641C69E1002526E00B982C
:10217000401C0B900B9800782D2802D145F01005DB
:102180001CE00B9800782B2802D145F0040515E0DF
:102190000B980078202802D145F008050EE00B9836
:1021A0000078232802D145F0200507E00B9800783D
:1021B000302802D145F0010500E000E0D7E700BF7C
:1021C0004FF0FF370B98007830380A2804D20BA85C
:1021D00000F06DF907460EE00B9800782A280AD126
:1021E0000B98401C0B900C9880C80C90002F02DAC2
:1021F0007F4245F010054FF0FF3A0B9800782E28EB
:102200001CD10B98401C0B900B98007830380A2892
:1022100004D20BA800F04BF982460AE00B98007834
:102220002A2806D10B98401C0B900C9850F804AB50
:102230000C90BAF1000F01DA4FF0000A0020049070
:102240000B980078682803D00B9800786C2805D18B
:102250000B98007804900B98401C0B900A20059076
:102260000B9800786F2873D00CDC632813D004DC43
:1022700025286ED058286DD195E064286BD0692848
:10228000F9D197E0702873D0732825D075286ED0C7
:102290007828F0D18AE005F0100040B904E0B4429B
:1022A00001D220202070641C781E071EF7DC0C98D9
:1022B00010F8041B0C90C8B20790B44201D20798E2
:1022C0002070641C04E0B44201D220202070641C01
:1022D000781E071EF7DCB2E00C98006806900C9898
:1022E000001D0C90069808B960A006904FF00008F9
:1022F00001E008F10108B84504D0069810F808007C
:102300000028F6D1BAF1000F02DDD04500DDD0463D
:1023100005F0100048B904E0B44201D2202020703A
:10232000641C38467F1E4045F6DC002008900BE018
:10233000B44202D2069800782070641C0698401CB3
:1023400006900898401C089008984045F0DB09E08A
:1023500026E01FE032E02CE00AE0B44201D2202067
:102360002070641C38467F1E4045F6DC67E024E0A0
:10237000781C10B9082745F00105CDE9007A0295CF
:102380000C9804C8102331460C902046FEF744FCFC
:10239000044654E0B44201D225202070641C4EE073
:1023A000082005901DE045F0400500BF1020059075
:1023B00017E000BF45F0020500BF12E0B44201D2B1
:1023C00025202070641C0B98007830B1B44202D2F2
:1023D0000B9800782070641C02E00B98401E0B9054
:1023E0002DE000BF04986C2807D10C9850F804BB6E
:1023F0000C9005F00200B8B116E0049868280BD1E3
:102400000C9830F8041B1FFA81FB0C9005F00200B9
:1024100050B10FFA8BFB07E00C9850F804BB0C90FE
:1024200005F0020000B100BFCDE9007A02955A46DE
:1024300031462046059BFEF7EFFB044600BF0B9894
:10244000401C0B900B98007800287FF483AE0A980C
:1024500038B1B44202D20020207002E0002006F819
:10246000010CA4EB09000DB0BDE8F08F284E554CCF
:102470004C29000000207047002070470020704762
:102480000020704710B5FDF76FFEFEF76FFDFFF7F8
:102490000BFAFFF73FFBFFF7FFFAFEF789FCFFF7A8
:1024A00047FBFFF7CFFBFFF71DFB002010BD0146E8
:1024B000002009E00B685A1C0A601A7800EB8003C0
:1024C00002EB4302A2F130000A681278303A0A2A7D
:1024D000F0D3704710B54FF4E130FEF723FA002037
:1024E00010BD000001000200010003000100020015
:1024F00001000400010002000100030001000200CD
:1025000001000500010002000100030001000200BB
:1025100001000400010002000100030001000200AC
:10252000010006000100020001000300010002009A
:10253000010004000100020001000300010002008C
:10254000010005000100020001000300010002007B
:10255000010004000100020001000300010002006C
:102560000100070001000200010003000100020059
:10257000010004000100020001000300010002004C
:10258000010005000100020001000300010002003B
:10259000010004000100020001000300010002002C
:1025A000010006000100020001000300010002001A
:1025B000010004000100020001000300010002000C
:1025C00001000500010002000100030001000200FB
:1025D00001000400010002000100030001000200EC
:1025E0000100303132333435363738396162636453
:1025F000656600303132333435363738394142433D
:10260000444546008124000879240008D5240008A8
:10261000752400087D2400083826000800000020EA
:10262000BC000000140A0008F4260008BC000020CA
:102630009C430000240A000800A24A040000000095
:102640000000000001020304060708090000000062
:102650000102030401020304060708090204060834
:10266000000000000000000000000000000000006A
:10267000000000000000000000000000000000005A
:10268000000000000000000000000000000000004A
:10269000010000005C0000205C00002078000000C9
:1026A000020000006C0000206C00002020000000F0
:1026B000050000007C0000207C00002030000000AD
:1026C0000A0000008C0000208C0000202C0000007C
:1026D00000000000000000000000000000000000FA
:1026E00000000000000000000000000000000000EA
:0426F00000000000E6
:0400000508000145A9
:00000001FF
